:020000040000FA
:100000000C9462000C948A000C948A000C948A0070
:100010000C948A000C948A000C948A000C948A0038
:100020000C948A000C948A000C948A000C948A0028
:100030000C948A000C948A000C948A000C948A0018
:100040000C94B5030C948A000C948A000C948A00DA
:100050000C948A000C948A000C948A000C948A00F8
:100060000C948A000C948A000000000024002700F1
:100070002A0000000000250028002B0000000000DE
:1000800023002600290004040404040404040202DA
:100090000202020203030303030301020408102007
:1000A0004080010204081020010204081020000012
:1000B0000008000201000003040700000000000027
:1000C0000000000511241FBECFEFD8E0DEBFCDBF7A
:1000D00011E0A0E0B1E0E0E9FAE002C005900D9285
:1000E000A834B107D9F721E0A8E4B1E001C01D921E
:1000F000AA36B207E1F710E0C2E6D0E004C02197CB
:10010000FE010E944005C136D107C9F70E94FF03D6
:100110000C9446050C940000833081F028F4813063
:1001200099F08230A9F008958730A9F08830C9F09D
:100130008430B1F4809180008F7D03C08091800075
:100140008F7780938000089584B58F7784BD08955C
:1001500084B58F7DFBCF8091B0008F778093B00006
:1001600008958091B0008F7DF9CFCF93DF93282F32
:1001700030E0F901E255FF4F8491F901E656FF4F57
:10018000D491F901EA57FF4FC491CC23A1F081111A
:100190000E948C00EC2FF0E0EE0FFF1FE458FF4FA1
:1001A000A591B491EC91ED2381E090E009F480E019
:1001B000DF91CF91089580E090E0FACF1F93CF9325
:1001C000DF93282F30E0F901E255FF4F8491F901C8
:1001D000E656FF4FD491F901EA57FF4FC491CC2363
:1001E000A9F0162F81110E948C00EC2FF0E0EE0F89
:1001F000FF1FEE58FF4FA591B4918FB7F894EC9183
:10020000111108C0D095DE23DC938FBFDF91CF9111
:100210001F910895DE2BF8CFCF93DF9390E0FC0180
:10022000E656FF4F24918A579F4FFC018491882303
:10023000D1F090E0880F991FFC01E859FF4FA5917C
:10024000B491FC01EE58FF4FC591D491623071F426
:100250009FB7F8943C91822F809583238C93E881FB
:100260002E2B28839FBFDF91CF9108958FB7F894ED
:10027000EC912E2B2C938FBFF6CF3FB7F894809143
:100280004E0190914F01A0915001B091510126B5BE
:10029000A89B05C02F3F19F00196A11DB11D3FBFBE
:1002A000BA2FA92F982F8827BC01CD01620F711D8D
:1002B000811D911D42E0660F771F881F991F4A9587
:1002C000D1F708958F929F92AF92BF92CF92DF9213
:1002D000EF92FF924B015C010E943D016B017C019A
:1002E0000E943D016C197D098E099F09683E73408B
:1002F00081059105A8F321E0821A9108A108B108AF
:1003000088EEC80E83E0D81EE11CF11C8114910414
:10031000A104B10429F7FF90EF90DF90CF90BF9038
:10032000AF909F908F900895AF92BF92CF92DF923F
:10033000EF92FF920F931F93CF93DF936C017B019A
:100340008B01040F151FEB015E01AE18BF08C0172B
:10035000D10759F06991D601ED91FC910190F0819E
:10036000E02DC6010995892B79F7C501DF91CF9161
:100370001F910F91FF90EF90DF90CF90BF90AF90C3
:100380000895089590E080E00895CF93C82F0E94CB
:10039000B500892B61F464EF71E080E090E00E9489
:1003A00062018C2F0E94B50021E0892B09F020E02A
:1003B000822FCF9108958F929F92AF92BF920F9309
:1003C0001F93CF93DF93CDB7DEB7A1970FB6F89405
:1003D000DEBF0FBECDBF19A2423008F44AE08E0145
:1003E0000F5D1F4F842E912CB12CA12CA5019401DF
:1003F0000E941E05E62FB901CA01EA3044F5E05D0E
:10040000D801EE938D01232B242B252B79F790E037
:1004100080E0109769F0FD0101900020E9F7319725
:10042000AF014A1B5B0BBD0182E591E00E94940184
:10043000A1960FB6F894DEBF0FBECDBFDF91CF916E
:100440001F910F91BF90AF909F908F900895E95C9E
:10045000D7CFFC0101900020E9F73197AF01481B8D
:10046000590BBC0182E591E00C949401CF93DF938A
:10047000EC0160E08E810E94DE0061E08E810E94CE
:10048000DE0060E08E810E94DE008BE891E0019743
:10049000F1F7DF91CF910895CF92DF92EF92FF9223
:1004A0000F931F93CF93DF936C017C0187E0E80EDD
:1004B000F11CD0E0C0E0062F10E0B8010C2E02C005
:1004C000759567950A94E2F76170F70181917F0154
:1004D0000E94DE002196C430D10579F7C601DF9174
:1004E000CF911F910F91FF90EF90DF90CF900C94E0
:1004F0003602CF92DF92EF92FF920F931F93CF932A
:10050000DF93EC01F62E642F8C810E94DE008D813A
:100510008F3F19F060E00E94DE000F2D10E08F8504
:1005200084FF25C06E0187E0C80ED11CF12CE12CA0
:10053000B8010E2C02C0759567950A94E2F76170B8
:10054000F60181916F010E94DE00FFEFEF1AFF0AB2
:1005500088E0E816F10461F7CE01DF91CF911F9199
:100560000F91FF90EF90DF90CF900C943602B8017E
:1005700084E0759567958A95E1F7CE010E944C025B
:100580006F2DCE01DF91CF911F910F91FF90EF90D2
:10059000DF90CF900C944C0240E0682F82E591E010
:1005A0000C94790281E00E94CC028BE39FE10197D9
:1005B000F1F70895CF93DF93823029F49091610190
:1005C000986090936101809365011092660180E4C8
:1005D0008093670180E18093680180E580936901E1
:1005E00061E0809156010E940C01809157018F3F7C
:1005F00019F061E00E940C0161E0809158010E94B5
:100600000C01C2E5D1E09E0122553140809161018B
:1006100084FD0BC084E090E021962817390744F44C
:1006200061E08E810E940C01EECF88E090E0F4CF73
:100630008BE39DE00197F1F760E0809156010E9405
:10064000DE0060E0809158010E94DE008091570139
:100650008F3F19F060E00E94DE008091610184FD0F
:1006600034C063E082E591E00E944C02CBE4D6E422
:10067000CE010197F1F763E082E591E00E944C0220
:100680002197F1F763E082E591E00E944C0283E557
:1006900092E00197F1F762E082E591E00E944C025E
:1006A0008091610180620E94CC0284E080936201AB
:1006B0008CE00E94CC020E94D20282E0809363010F
:1006C00086E0DF91CF910C94CC0280620E94CC0234
:1006D0008BE496E40197F1F78091610180620E94BA
:1006E000CC0283E592E00197F1F78091610180628D
:1006F0000E94CC02D5CF90916501691710F06FEF81
:10070000690FE62FF0E0EE5AFE4F9489890F80685A
:100710000C94CC0241E00E94790281E090E00895BF
:10072000CF92DF92EF92FF9297FF18C06B017C018E
:1007300041E06DE282E591E00E9479026627772729
:10074000CB016C197D098E099F094AE00E94DB01EB
:100750000196FF90EF90DF90CF9008954AE0FF90D0
:10076000EF90DF90CF900C94DB011F920F920FB6A9
:100770000F9211242F933F938F939F93AF93BF9327
:1007800080914A0190914B01A0914C01B0914D0193
:100790003091490123E0230F2D3758F50196A11D13
:1007A000B11D2093490180934A0190934B01A0937E
:1007B0004C01B0934D0180914E0190914F01A09159
:1007C0005001B09151010196A11DB11D80934E01C0
:1007D00090934F01A0935001B0935101BF91AF91FD
:1007E0009F918F913F912F910F900FBE0F901F906F
:1007F000189526E8230F0296A11DB11DD2CF78943B
:1008000084B5826084BD84B5816084BD85B5826015
:1008100085BD85B5816085BD80916E0081608093C6
:100820006E0010928100809181008260809381002F
:10083000809181008160809381008091800081603F
:10084000809380008091B10084608093B10080919A
:10085000B00081608093B00080917A0084608093C2
:100860007A0080917A00826080937A0080917A0089
:10087000816080937A0080917A00806880937A000A
:100880001092C10062E082E00E940C0162E083E00D
:100890000E940C0162E084E00E940C0162E085E0AD
:1008A0000E940C0161E086E00E940C0185B5887F02
:1008B000826085BD82E00E94DA020E94D2028EE050
:1008C00091E00E94290268EB7BE080E090E00E94CA
:1008D00062010E94D2028BE191E00E94290281E034
:1008E0008093480184E090E00E94C5018823D1F301
:1008F0000E94D20287E291E00E94290261E080E03A
:100900000E947B0384E391E00E94290260E08EE074
:100910000E947B0385E491E00E94290260E08CE064
:100920000E947B036091000170910101072E000C71
:10093000880B990B0E94900300E010E082E090E0A9
:100940000E94C501C82F83E090E00E94C501E82EF7
:1009500084E090E00E94C50185E090E00E94C5011E
:10096000F82EC11116C0C0910001D0910101C4360A
:10097000D1057CF42196D0930101C093000160E081
:100980008CE00E947B03BE01DD0F880B990B0E9457
:100990009003E11016C0C0910001D09101011C1616
:1009A0001D067CF42197D0930101C093000160E003
:1009B0008CE00E947B03BE01DD0F880B990B0E9427
:1009C0009003F1100AC01092480161E086E00E9495
:1009D0000C0160E086E00E94DE00809148018823DF
:1009E00041F061E086E00E940C0161E086E00E9437
:1009F000DE000115110509F4A1CF0E9400009ECF71
:100A0000E2E5F1E01382128286E091E09183808337
:100A10008DE084838FEF85838CE086838BE08783F2
:100A20008AE0808789E0818788E082871386148640
:100A300015861686178681E00C94DA02A1E21A2E3A
:100A4000AA1BBB1BFD010DC0AA1FBB1FEE1FFF1F72
:100A5000A217B307E407F50720F0A21BB30BE40BC2
:100A6000F50B661F771F881F991F1A9469F7609509
:100A70007095809590959B01AC01BD01CF010895C3
:100A8000EE0FFF1F0590F491E02D0994F894FFCF2D
:100A90003200000000008A039401C201C1014865D0
:100AA0006C6C6F20576F726C6421005072657373A9
:100AB000205374617274004672657175656E637956
:100AC000203D2000662072616E6765203020746FC3
:080AD0002031303000487A00AB
:107E0000112484B714BE81FFF0D085E080938100F7
:107E100082E08093C00088E18093C10086E0809377
:107E2000C20080E18093C4008EE0C9D0259A86E02C
:107E300020E33CEF91E0309385002093840096BBD3
:107E4000B09BFECF1D9AA8958150A9F7CC24DD24C4
:107E500088248394B5E0AB2EA1E19A2EF3E0BF2EE7
:107E6000A2D0813461F49FD0082FAFD0023811F036
:107E7000013811F484E001C083E08DD089C08234E0
:107E800011F484E103C0853419F485E0A6D080C0E4
:107E9000853579F488D0E82EFF2485D0082F10E0AE
:107EA000102F00270E291F29000F111F8ED06801E7
:107EB0006FC0863521F484E090D080E0DECF843638
:107EC00009F040C070D06FD0082F6DD080E0C81688
:107ED00080E7D80618F4F601B7BEE895C0E0D1E017
:107EE00062D089930C17E1F7F0E0CF16F0E7DF06D8
:107EF00018F0F601B7BEE89568D007B600FCFDCFD4
:107F0000A601A0E0B1E02C9130E011968C91119780
:107F100090E0982F8827822B932B1296FA010C0160
:107F200087BEE89511244E5F5F4FF1E0A038BF0790
:107F300051F7F601A7BEE89507B600FCFDCF97BE46
:107F4000E89526C08437B1F42ED02DD0F82E2BD052
:107F50003CD0F601EF2C8F010F5F1F4F84911BD097
:107F6000EA94F801C1F70894C11CD11CFA94CF0C13
:107F7000D11C0EC0853739F428D08EE10CD085E9AC
:107F80000AD08FE07ACF813511F488E018D01DD067
:107F900080E101D065CF982F8091C00085FFFCCF94
:107FA0009093C60008958091C00087FFFCCF809118
:107FB000C00084FD01C0A8958091C6000895E0E648
:107FC000F0E098E1908380830895EDDF803219F02E
:107FD00088E0F5DFFFCF84E1DECF1F93182FE3DFCA
:107FE0001150E9F7F2DF1F91089580E0E8DFEE27F6
:047FF000FF270994CA
:027FFE00040479
:00000001FF
