:10138500106D2E373431303835323D3936332B2D0B
:021395002A2FFD
:0613B2007B007A00793196
:0513B80074FF020EF8B5
:101248007C007D0A120F1CAE04AF057B007A007982
:011258003164
:101259008B598A5A895BAD07AC06E92401F9E43A4E
:10126900FAC002C001AA5AA95B7401120ED6FF3353
:1012790095E0FEEF25E0FFEE33FED001D002E92F25
:0A128900F9EA3EFAEC8DF0020F7D49
:0612D7007B007A00793172
:1012DD008B598A5A895BE92401F9E43AFAC003C0B3
:1012ED0002C001AA5AA95B74FF120EB2FF3395E03A
:1012FD00FEEF25E0FFEE33FED001D002D003E92F43
:0B130D00F9EA3EFA120F52FFAEF02288
:0D139800E55925E0245AF8E6FE08E6FF229C
:1013180078597C007D007B007A0079317E007F134C
:03132800120E8C16
:0D132B00E55925E02458F8E6FE08E6FF220B
:0513C800AE5AAF5B22EC
:0513CD00AE5EAF5F22DF
:10135800EF642B6003BF2D037F0122EF642A600333
:09136800BF2F037F02227F002247
:10080000E4F57EF52F750830F544753003FB1213BF
:10081000B475B0FF1213710208FAE508643D700365
:10082000020902E508B42E1FFF121338AF08AD2FDE
:10083000052FED25E02409F8760008A6077530019C
:1008400012110E8F0880DCAF08121338E508C3942C
:1008500030404CE508D39439504574D02508F5084C
:10086000E5307025E52F25E02407F8E6FE08E6FFD1
:100870007C007D0A120F0AEF2508FFEC3EFEE52FF3
:1008800025E02407F8A606800EAF08AD2F052FED52
:1008900025E02409F8760008A607E4F530805BE53A
:1008A00030600EAF2F052FEF25E02409F8E4F6089D
:1008B000F678597C007D007B007A0079317E007FDC
:1008C00013120E8C121398121358AE07AF0812139E
:1008D00058D3EE6480F8EF648098400280121212C0
:1008E000D7AD2F052FED25E02409F8A60608A607A9
:1008F000AF087E0012125375300112110E8F0802DC
:10090000081AE531F460141212D7AD2F052FED252A
:10091000E02409F8A60608A60780E7E52F25E024CD
:1009200009F87600087624AF081213381213B2E5DE
:100930004425E02409F8E6FE08E6FF64244E70032F
:10094000020C67EF642B4E6015EF642D4E600FEFC5
:10095000642A4E6009EF642F4E6003020C4D12139F
:1009600018EF642E4E7035FB1212D98E4F8F507CCB
:10097000007D0A120F1CEF4E700EAE4FAF50FC7D83
:100980000A120F0A8E4F8F501212D71212D7EE335F
:1009900095E08F4C8E4BF54AF54980141212D7EE34
:1009A0003395E08F4C8E4BF54AF549E4F54FF55001
:1009B000121318EF642E4E7035FB1212D98E4D8F24
:1009C0004E7C007D0A120F1CEF4E700EAE4DAF4EE6
:1009D000FC7D0A120F0A8E4D8F4E1212D71212D7BB
:1009E000EE3395E08F488E47F546F5458014121298
:1009F000D7EE3395E08F488E47F546F545E4F54D43
:100A0000F54EE54425E02409F8E6FE08E6FFEE6031
:100A100003020C62EF24D67003020AD024FD605654
:100A200024FE7003020B8224046003020C62E54E74
:100A30002550F552E54D354FF551E548254CFBE580
:100A400047354BFAAE51AF527C007D64120F1CEF5C
:100A50002BF554EE3AF5537C007D64120F0AC3E582
:100A6000529FF552E5519EF5517B007A007931AFE6
:100A700054AE53020C35C3E54E9550E54F6480F8F3
:100A8000E54D64809850237464254EF54EE4354D51
:100A9000F54D74FF2548F548E54734FFF547E54631
:100AA00034FFF546E54534FFF545C3E54E9550F571
:100AB00052E54D954FF551C3E548954CF554E54742
:100AC000954BF5537B007A007931AF54FE020C351B
:100AD000E47F64FEFDFCAB48AA47A946A845120F77
:100AE0009CA804A905AA06AB07AE4DEE3395E0FD20
:100AF000FCEB254EF548EA3EF547E93DF546E83C76
:100B0000F545E47F64FEFDFCAB4CAA4BA94AA8491D
:100B1000120F9CA804A905AA06AB07AE4FEE3395A9
:100B2000E0FDFCEB2550F54CEA3EF54BE93DF54A7E
:100B3000E83CF549AF4CAE4BAD4AFCAB48AA47A9DF
:100B400046A845120F9CE47B107A27F9F8121293FD
:100B5000AE02AF038E518F52AF4CAE4BAD4AAC4993
:100B6000AB48AA47A946A845120F9CE47B107A27F8
:100B7000F9F81212938E538F547B007A0079310268
:100B80000C35E47F64FEFDFCAB48AA47A946A845A6
:100B9000120F9CA804A905AA06AB07AE4DEE33952B
:100BA000E0FDFCEB254EF548EA3EF547E93DF5460C
:100BB000E83CF545E47F64FEFDFCAB4CAA4BA94A3A
:100BC000A849120F9CA804A905AA06AB07AE4FEED0
:100BD0003395E0FDFCEB2550F54CEA3EF54BE93D45
:100BE000F54AE83CF549AB4CAA4BA94AF8AF48AEE8
:100BF00047AD46AC45121293AC00AD01AE02AF0357
:100C0000E47B64FAF9F8120F9CAB4CAA4BA94AA8F2
:100C1000491212938E518F52AB4CAA4BA94AA84944
:100C2000AF48AE47AD46AC451212938E538F547BFE
:100C3000007A0079311212597A0079317F2E7E00C4
:100C40001212597A007931AF52AE518012E5442523
:100C5000E02409F8E6FE08E6FF7B007A007931120D
:100C60001259054402092F78597C007D007B007AD7
:100C70000079317E007F13120E8C1213C88E538FB1
:100C80005485535585545678597C007D007B007AF5
:100C90000079317E007F13120E8C1213CD8E518F8E
:100CA00052855157855258C3E55364809480501043
:100CB0007F2D121338C3E49554F554E49553F5533E
:100CC0001213B2E55445536018AE53AF5412124894
:100CD000AE53AF547C007D0A120F1C8E538F54808C
:100CE000E2E531B4FF0C7B007A007931E4FFFE12BB
:100CF0001259E531F4600C1212D7EF2430FF1213B1
:100D00003880EF7F2E121338E55245516018AE51EE
:100D1000AF52121248AE51AF527C007D0A120F1C26
:100D20008E518F5280E2C3E53164809481500C7BF8
:100D3000007A007931E4FFFE121259E531F4600CBB
:100D40001212D7EF2430FF12133880EF12110E8FDA
:100D500008E508642F6015E508642A600FE508645B
:100D60002B6009E508642D60030208001213B2121B
:100D700013717F411213387F4E1213387F531213B1
:100D800038E4F52FAF2F052FEF25E02409F8A655FD
:100D900008A656AF2F052FEF25E02409F8760008A6
:100DA000762EAF2F052FEF25E02409F8A65708A6C9
:0C0DB00058E4F530757E04F54402081A82
:0A13BD00E4FEEEC39F50030E80F81B
:0113C7002203
:0D13A5008FB0C286D287C2877FFF0213BDC2
:101371007F381213A57F0E1213A57F011213A57FCB
:04138100800213A52E
:10133800AD07057ED3E57E6480948F40057F181243
:1013480013A58DB0D286D2877FFF1213BDC2872224
:10110E007590F07590F085906C536CF0E56CB4F0C2
:10111E00F27F141213BDE59054F0F56C64F060F19B
:10112E007F011213BDE59054F0F56C64F060E2752A
:10113E0090FEE59054F0F56C64F06005E4F57D806A
:10114E00347590FDE59054F0F56C64F06005757D96
:10115E000180227590FBE59054F0F56C64F060050B
:10116E00757D0280107590F7E59054F0F56C64F083
:10117E0060BD757D03E56CB4E00AE57D25E025E0F4
:10118E00246D8026E56CB4D00AE57D25E025E024AB
:10119E006E8017E56CB4B00AE57D25E025E0246F7E
:0E11AE008008E57D25E025E02470F8E6FF22AC
:030000000211BC2E
:0C11BC00787FE4F6D8FD75817E021203F6
:100DBC00E709F608DFFA8046E709F208DFFA803E19
:100DCC0088828C83E709F0A3DFFA8032E309F60806
:100DDC00DFFA8078E309F208DFFA807088828C836E
:100DEC00E309F0A3DFFA806489828A83E0A3F60822
:100DFC00DFFA805889828A83E0A3F208DFFA804CFC
:100E0C0080D280FA80C680D4806980F280338010D2
:100E1C0080A680EA809A80A880DA80E280CA80333B
:100E2C0089828A83ECFAE493A3C8C582C8CCC583B3
:100E3C00CCF0A3C8C582C8CCC583CCDFE9DEE78083
:100E4C000D89828A83E493A3F608DFF9ECFAA9F002
:100E5C00EDFB2289828A83ECFAE0A3C8C582C8CC58
:100E6C00C583CCF0A3C8C582C8CCC583CCDFEADE71
:100E7C00E880DB89828A83E493A3F208DFF980CCD3
:100E8C0088F0EF60010E4E60C388F0ED2402B404CC
:100E9C000050B9F582EB2402B4040050AF23234573
:060EAC008223900E0C737E
:100EB200BB010B89828A83F8E0C828F0E82250033C
:100EC20027C722BBFE07F8E3C828F3E8228A8389F2
:040ED20082E4932201
:100ED600BB010989828A83F8E028F022500327F7AC
:100EE60022BBFE05F8E328F3228A838982F8E4937D
:020EF6002822B0
:100EF800BB010689828A83F0225002F722BBFE01D9
:020F0800F322D2
:100F0A00EF8DF0A4A8F0CF8CF0A428CE8DF0A42EFB
:020F1A00FE22B5
:100F1C00C2D5EC30E709B2D5E4C39DFDE49CFCEEF0
:100F2C0030E715B2D5E4C39FFFE49EFE120FEBC36E
:100F3C00E49DFDE49CFC8003120FEB30D507C3E469
:060F4C009FFFE49EFE225F
:100F5200BB010A89828A83E0F5F0A3E0225006876A
:100F6200F009E71922BBFE07E3F5F009E31922892C
:0B0F7200828A83E493F5F0740193225F
:100F7D00BB010A89828A83F0E5F0A3F0225006F7BF
:0F0F8D0009A7F01922BBFE06F3E5F009F31922BC
:100F9C00E88FF0A4CC8BF0A42CFCE98EF0A42CFCF4
:100FAC008AF0EDA42CFCEA8EF0A4CDA8F08BF0A472
:100FBC002DCC3825F0FDE98FF0A42CCD35F0FCEBD1
:100FCC008EF0A4FEA9F0EB8FF0A4CFC5F02ECD3996
:0F0FDC00FEE43CFCEAA42DCE35F0FDE43CFC2203
:10129300C2D5E830E70FB2D5E4C39BFBE49AFAE486
:1012A30099F9E498F8EC30E717B2D51212C9121085
:1012B3007CE4C39BFBE49AFAE499F9E498F880038D
:1012C30012107C30D50DE4C39FFFE49EFEE49DFD28
:0412D300E49CFC2279
:1011C800020800E493A3F8E493A34003F68001F235
:1011D80008DFF48029E493A3F85407240CC8C33328
:1011E800C4540F4420C8834004F456800146F6DFF7
:1011F800E4800B0102040810204080901385E47EEF
:10120800019360BCA3FF543F30E509541FFEE493EB
:10121800A360010ECF54C025E060A840B8E493A3B2
:10122800FAE493A3F8E493A3C8C582C8CAC583CADD
:10123800F0A3C8C582C8CAC583CADFE9DEE780BE95
:011397000055
:100FEB00BC000BBE0029EF8DF084FFADF022E4CCEA
:100FFB00F875F008EF2FFFEE33FEEC33FCEE9DECB3
:10100B00984005FCEE9DFE0FD5F0E9E4CEFD22EDF8
:10101B00F8F5F0EE8420D21CFEADF075F008EF2F42
:10102B00FFED33FD4007985006D5F0F222C398FD33
:05103B000FD5F0EA22D0
:1010400075F008758200EF2FFFEE33FECD33CDCC67
:1010500033CCC58233C5829BED9AEC99E5829840EA
:101060000CF582EE9BFEED9AFDEC99FC0FD5F0D6C7
:10107000E4CEFBE4CDFAE4CCF9A88222B800C1B9F1
:101080000059BA002DEC8BF084CFCECDFCE5F0CB2F
:10109000F97818EF2FFFEE33FEED33FDEC33FCEB68
:1010A00033FB10D703994004EB99FB0FD8E5E4F923
:1010B000FA227818EF2FFFEE33FEED33FDEC33FC10
:1010C000C933C910D7059BE99A4007EC9BFCE99A04
:1010D000F90FD8E0E4C9FAE4CCFB2275F010EF2F49
:1010E000FFEE33FEED33FDCC33CCC833C810D70749
:1010F0009BEC9AE899400AED9BFDEC9AFCE899F884
:0E1100000FD5F0DAE4CDFBE4CCFAE4C8F92216
:00000001FF
