:020000040000FA
:100000000C946C000C9494000C9494000C94940048
:100010000C9494000C9494000C9494000C94940010
:100020000C9494000C9494000C9494000C94940000
:100030000C9494000C9494000C9494000C949400F0
:100040000C9401030C9494000C9494000C94940070
:100050000C9494000C9494000C9494000C949400D0
:100060000C9494000C94940005A84CCDB2D44EB9D5
:100070003836A9020C50B9918688083CA6AAAA2A4B
:10008000BE000000803F00000008000201000003E5
:100090000407000000000000000000000000250030
:1000A00028002B0000000000240027002A00040480
:1000B0000404040404040202020202020303030310
:1000C00003030102040810204080010204081020EC
:1000D000010204081020450611241FBECFEFD8E00E
:1000E000DEBFCDBF11E0A0E0B1E0E2E4F3E102C089
:1000F00005900D92A632B107D9F721E0A6E2B1E052
:1001000001C01D92AB34B207E1F710E0CCE6D0E0BD
:1001100004C02197FE010E949909CB36D107C9F787
:100120000E944B030C949F090C94000090E0FC018A
:10013000EE53FF4F249182559F4FFC0184918823F9
:1001400099F090E0880F991FFC01EC55FF4FA591A5
:10015000B491FC01E656FF4F859194918FB7F894C6
:10016000EC91E22BEC938FBF089590E0FC01EA57ED
:10017000FF4F2491FC01EE53FF4F3491FC01E255F7
:10018000FF4FE491EE23C9F0222339F0233001F12F
:10019000A8F4213019F1223029F1F0E0EE0FFF1F11
:1001A000E656FF4FA591B4918FB7F894EC91611189
:1001B00026C030953E233C938FBF08952730A9F089
:1001C0002830C9F0243049F7809180008F7D03C02A
:1001D000809180008F7780938000DFCF84B58F7708
:1001E00084BDDBCF84B58F7DFBCF8091B0008F774E
:1001F0008093B000D2CF8091B0008F7DF9CF3E2B9D
:10020000DACF8E3008F08E508770806480937C0047
:1002100080917A00806480937A0080917A0086FDD4
:10022000FCCF809178009091790008953FB7F894C1
:1002300080912F0190913001A0913101B091320154
:1002400026B5A89B05C02F3F19F00196A11DB11D31
:100250003FBFBA2FA92F982F8827BC01CD01620F6D
:10026000711D811D911D42E0660F771F881F991F28
:100270004A95D1F70895AF92BF92CF92DF92EF9255
:10028000FF920F931F93CF93DF936C017B018B0140
:10029000040F151FEB015E01AE18BF08C017D10790
:1002A00059F06991D601ED91FC910190F081E02D1A
:1002B000C6010995892B79F7C501DF91CF911F916F
:1002C0000F91FF90EF90DF90CF90BF90AF90089587
:1002D000089590E080E00895FC0101900020E9F786
:1002E0003197AF01481B590BBC0183E391E00C949B
:1002F0003B018F929F92AF92BF920F931F93CF9328
:10030000DF93CDB7DEB7A1970FB6F894DEBF0FBE6F
:10031000CDBF19A2423008F44AE08E010F5D1F4F95
:10032000842E912CB12CA12CA50194010E9495063C
:10033000E62FB901CA01EA30F4F4E05DD801EE938A
:100340008D01232B242B252B79F790E080E010974B
:1003500019F0CD010E946C01A1960FB6F894DEBF92
:100360000FBECDBFDF91CF911F910F91BF90AF9086
:100370009F908F900895E95CE1CFCF93DF93EC01DC
:1003800060E08E810E94B50061E08E810E94B50020
:1003900060E08E810E94B5008BE891E00197F1F753
:1003A000DF91CF910895CF92DF92EF92FF920F935A
:1003B0001F93CF93DF936C017C0187E0E80EF11C63
:1003C000D0E0C0E0062F10E0B8010C2E02C07595F9
:1003D00067950A94E2F76170F70181917F010E94AD
:1003E000B5002196C430D10579F7C601DF91CF91D0
:1003F0001F910F91FF90EF90DF90CF900C94BD0173
:10040000CF92DF92EF92FF920F931F93CF93DF93E0
:10041000EC01F62E642F8C810E94B5008D818F3FF8
:1004200019F060E00E94B5000F2D10E08F8584FF69
:1004300025C06E0187E0C80ED11CF12CE12CB8015B
:100440000E2C02C0759567950A94E2F76170F6016B
:1004500081916F010E94B500FFEFEF1AFF0A88E05B
:10046000E816F10461F7CE01DF91CF911F910F9152
:10047000FF90EF90DF90CF900C94BD01B80184E025
:10048000759567958A95E1F7CE010E94D3016F2D8E
:10049000CE01DF91CF911F910F91FF90EF90DF90F0
:1004A000CF900C94D30140E0682F83E391E00C944B
:1004B0000002CF93DF93823029F49091420198603B
:1004C00090934201809346011092470180E480930B
:1004D000480180E18093490180E580934A01809141
:1004E00037010E949600809138018F3F11F00E94E1
:1004F0009600809139010E949600C3E3D1E09E01ED
:10050000235331408091420184FD0AC084E090E091
:100510002196281739073CF48E810E949600EFCF70
:1005200088E090E0F5CF8BE39DE00197F1F760E084
:10053000809137010E94B50060E0809139010E94EE
:10054000B500809138018F3F19F060E00E94B5003E
:100550008091420184FD39C063E083E391E00E9411
:10056000D301CBE4D6E4CE010197F1F763E083E356
:1005700091E00E94D3012197F1F763E083E391E0DA
:100580000E94D30183E592E00197F1F762E083E3F3
:1005900091E00E94D3018091420180620E94530247
:1005A00084E0809343018CE00E94530281E00E942A
:1005B00053028BE39FE10197F1F782E080934401BE
:1005C00086E0DF91CF910C94530280620E94530227
:1005D0008BE496E40197F1F78091420180620E94DA
:1005E000530283E592E00197F1F780914201806226
:1005F0000E945302D0CF41E00E94000281E090E0CF
:1006000008951F920F920FB60F9211242F933F93CC
:100610008F939F93AF93BF9380912B0190912C0167
:10062000A0912D01B0912E0130912A0123E0230FDA
:100630002D3758F50196A11DB11D20932A018093F5
:100640002B0190932C01A0932D01B0932E0180914A
:100650002F0190913001A0913101B09132010196AA
:10066000A11DB11D80932F0190933001A093310102
:10067000B0933201BF91AF919F918F913F912F9194
:100680000F900FBE0F901F90189526E8230F02962B
:10069000A11DB11DD2CFCF93DF9300D000D0CDB735
:1006A000DEB7789484B5826084BD84B5816084BDF2
:1006B00085B5826085BD85B5816085BD80916E0000
:1006C000816080936E001092810080918100826031
:1006D000809381008091810081608093810080916E
:1006E00080008160809380008091B100846080935D
:1006F000B1008091B00081608093B00080917A0059
:10070000846080937A0080917A00826080937A007E
:1007100080917A00816080937A0080917A0080686D
:1007200080937A001092C10061E085E00E94B500DC
:1007300061E086E00E94B50085E00E94960086E0B8
:100740000E94960044244A9483E0582E612C712C18
:1007500000E010E08EE00E9401012FEF30E0DC01AC
:100760000E949209A30192010E946306CA01B90185
:100770000E94DB076B017C0120E030E04CE552E495
:100780000E94330787FF17C020E030E044E352E4C3
:10079000C701B6010E948B0818166CF480E090E047
:1007A000A8E4B2E48093260190932701A093280146
:1007B000B093290153C020E030E04CE552E4C7017A
:1007C000B6010E948B0818162CF480E090E0A0E798
:1007D000B2E4E8CF20E030E044E352E4C701B601E0
:1007E0000E94330787FF0FC020E030E04CE052E466
:1007F000C701B6010E948B0818162CF480E090E027
:10080000A0E2B2E4CFCF20E030E04CE052E4C701F8
:10081000B6010E94330787FF0FC020E030E048ECAC
:1008200051E4C701B6010E948B0818162CF480E031
:1008300090E0A0EFB1E4B6CF20E030E048EC51E426
:10084000C701B6010E94330787FD86C0C09226010A
:10085000D0922701E0922801F092290181E00E94C4
:1008600053028BE39FE10197F1F782E00E94590266
:100870008CE091E00E946C01E0914601E23008F0CA
:1008800070C0E150F0E0ED5CFE4F848980680E940A
:100890005302C0902601D0902701E0902801F090EB
:1008A0002901A7019601C701B6010E940509882305
:1008B00009F459C08AE191E00E946C0180912601FF
:1008C00090912701A0912801B091290189839A83F1
:1008D000AB83BC83209126013091270140912801F0
:1008E0005091290169817A818B819C810E94330713
:1008F0008111C4C18EE00E9401012FEF30E0DC01C4
:100900000E949209A30192010E946306CA01B901E3
:100910000E94DB076B017C0120E030E04CE552E4F3
:100920000E94330787FFB3C020E030E044E352E485
:10093000C701B6010E948B0818160CF0A8C080E011
:1009400090E0A8E4B2E48093260190932701A0935D
:100950002801B0932901EEC080E090E0A0EAB1E464
:1009600021CFE1E08FCF46015701E894B7F82FEF90
:100970003FEF4FE75FE7C501B4010E940509811110
:100980000DC02FEF3FEF4FE75FE7C501B4010E94B5
:10099000330718161CF48EE191E08ECF2FEF3FEF56
:1009A0004FE75FE4C701B6010E948B0818161CF4DC
:1009B00082E291E081CF2FEF3FEF4FE75FECC7017D
:1009C000B6010E94330787FDF3CF20E030E0A90194
:1009D000C701B6010E94330787FF0AC041E06DE2FC
:1009E00083E391E00E940002F7FAF094F7F8F094A4
:1009F0002AE037ED43EA5BE3C701B6010E94C70670
:100A00004B015C010E94AA076B017C010E94D9077F
:100A10009B01AC01C501B4010E94C6064B015C01FB
:100A20004AE0C701B6010E94790141E06EE283E32A
:100A300091E00E94000220E030E040E251E4C50174
:100A4000B4010E9490084B015C010E94AA076B014F
:100A5000F12CE12C4AE0C701B6010E947901C701DF
:100A6000B6010E94D9079B01AC01C501B4010E94E7
:100A7000C60620E030E040E251E40E9490080E9467
:100A8000AA0790E080E04AE00E94790117CF20E0B9
:100A900030E04CE552E4C701B6010E948B081816FD
:100AA0002CF480E090E0A0E7B2E44DCF20E030E00D
:100AB00044E352E4C701B6010E94330787FF0FC029
:100AC00020E030E04CE052E4C701B6010E948B0800
:100AD00018162CF480E090E0A0E2B2E434CF20E0DD
:100AE00030E04CE052E4C701B6010E94330787FFB3
:100AF0000FC020E030E048EC51E4C701B6010E948D
:100B00008B0818162CF480E090E0A0EFB1E41BCF26
:100B100020E030E048EC51E4C701B6010E94330701
:100B200087FD6DC0C0922601D0922701E092280176
:100B3000F09229010E9416012BED3FE049EC50E4B0
:100B400060912601709127018091280190912901DF
:100B50000E9490086B017C010E9416010E94D90737
:100B600020E034E244E759E40E943807A7019601E7
:100B70000E9490080E94FD0820E030E040E85FE31A
:100B80000E94C7062DEC3CEC4CEC5EE30E94900802
:100B90006B017C010E9416019B01AC01AEEFB8ED28
:100BA0000E94900620E432E44FE050E00E94950657
:100BB0000E94D90720E034E244E759E40E94380754
:100BC0004B015C012AE939E949ED5EE3C701B60151
:100BD0000E948B0887FD18C061E085E00E94B50087
:100BE000A5019401C701B6010E94330761E087FFA8
:100BF00060E086E00E94B5000E9416016BCE80E0A6
:100C000090E0A0EAB1E49FCE20E030E040EC5EE36B
:100C1000C701B6010E9433071816BCF061E086E0F8
:100C20000E94B5002DEC3CEC4CEC5DE3C701B60135
:100C30000E94C7069B01AC01C501B4010E943307A5
:100C400060E087FD61E085E0D5CF20E030E040EC5A
:100C50005EE3C701B6010E948B0818166CF62AE9FC
:100C600039E949ED5EE3C701B6010E94330787FF0A
:100C7000C3CF61E086E00E94B500E4CF0115110505
:100C800009F468CD0E94000063CDE3E3F1E0138234
:100C9000128284E091E0918380838DE084838FEFE2
:100CA00085838CE086838BE087838AE0808789E078
:100CB000818788E0828713861486158616861786B4
:100CC00081E00C945902052E97FB1EF400940E94BB
:100CD0007A0657FD07D00E94950607FC03D04EF414
:100CE0000C947A0650954095309521953F4F4F4F83
:100CF0005F4F089590958095709561957F4F8F4FC8
:100D00009F4F08950E94B706A59F900DB49F900D28
:100D1000A49F800D911D11240895B7FF0C948206A5
:100D20000E948206821B930B0895A1E21A2EAA1B31
:100D3000BB1BFD010DC0AA1FBB1FEE1FFF1FA2178B
:100D4000B307E407F50720F0A21BB30BE40BF50B88
:100D5000661F771F881F991F1A9469F76095709511
:100D6000809590959B01AC01BD01CF010895A29F94
:100D7000B001B39FC001A39F700D811D1124911D6F
:100D8000B29F700D811D1124911D08955058BB27ED
:100D9000AA270E94DE060C9451080E94430838F0EE
:100DA0000E944A0820F039F49F3F19F426F40C946D
:100DB00040080EF4E095E7FB0C943A08E92F0E94F6
:100DC000620858F3BA17620773078407950720F083
:100DD00079F4A6F50C9484080EF4E0950B2EBA2F46
:100DE000A02D0B01B90190010C01CA01A001112431
:100DF000FF27591B99F0593F50F4503E68F11A16DD
:100E0000F040A22F232F342F4427585FF3CF46956D
:100E100037952795A795F0405395C9F77EF41F168F
:100E2000BA0B620B730B840BBAF09150A1F0FF0F59
:100E3000BB1F661F771F881FC2F70EC0BA0F621F45
:100E4000731F841F48F4879577956795B795F79535
:100E50009E3F08F0B0CF9395880F08F09927EE0FCA
:100E60009795879508950E94160808F481E00895E3
:100E70000E944C070C9451080E944A0858F00E94A6
:100E8000430840F029F45F3F29F00C943A085111CF
:100E90000C9485080C9440080E94620868F399231A
:100EA000B1F3552391F3951B550BBB27AA27621766
:100EB0007307840738F09F5F5F4F220F331F441F73
:100EC000AA1FA9F335D00E2E3AF0E0E832D09150A7
:100ED0005040E695001CCAF72BD0FE2F29D0660F94
:100EE000771F881FBB1F261737074807AB07B0E8D7
:100EF00009F0BB0B802DBF01FF2793585F4F3AF0DD
:100F00009E3F510578F00C943A080C9485085F3F99
:100F1000E4F3983ED4F3869577956795B795F79562
:100F20009F5FC9F7880F911D9695879597F908954A
:100F3000E1E0660F771F881FBB1F621773078407E6
:100F4000BA0720F0621B730B840BBA0BEE1F88F7F5
:100F5000E09508950E946A0888F09F5798F0B92F8D
:100F60009927B751B0F0E1F0660F771F881F991FDE
:100F70001AF0BA95C9F714C0B13091F00E948408F4
:100F8000B1E008950C948408672F782F8827B85F04
:100F900039F0B93FCCF3869577956795B395D9F736
:100FA0003EF490958095709561957F4F8F4F9F4F40
:100FB0000895E89409C097FB3EF49095809570954C
:100FC00061957F4F8F4F9F4F9923A9F0F92F96E995
:100FD000BB279395F695879577956795B795F1110A
:100FE000F8CFFAF4BB0F11F460FF1BC06F5F7F4FA7
:100FF0008F4F9F4F16C0882311F096E911C07723B9
:1010000021F09EE8872F762F05C0662371F096E8C1
:10101000862F70E060E02AF09A95660F771F881F90
:10102000DAF7880F9695879597F90895990F000834
:10103000550FAA0BE0E8FEEF16161706E807F907AA
:10104000C0F012161306E407F50798F0621B730B45
:10105000840B950B39F40A2661F0232B242B252BC6
:1010600021F408950A2609F4A140A6958FEF811D69
:10107000811D089597F99F6780E870E060E008950A
:101080009FEF80EC089500240A94161617061806A0
:101090000906089500240A9412161306140605067C
:1010A0000895092E0394000C11F4882352F0BB0F0D
:1010B00040F4BF2B11F460FF04C06F5F7F4F8F4F70
:1010C0009F4F089557FD9058440F551F59F05F3FAB
:1010D00071F04795880F97FB991F61F09F3F79F05A
:1010E00087950895121613061406551FF2CF4695DC
:1010F000F1DF08C0161617061806991FF1CF86955E
:101100007105610508940895E894BB276627772741
:10111000CB0197F908950E94160808F48FEF0895FF
:101120000E94A3080C9451080E94430838F00E94C2
:101130004A0820F0952311F00C943A080C944008CA
:1011400011240C9485080E94620870F3959FC1F3E6
:10115000950F50E0551F629FF001729FBB27F00D65
:10116000B11D639FAA27F00DB11DAA1F649F6627BA
:10117000B00DA11D661F829F2227B00DA11D621F09
:10118000739FB00DA11D621F839FA00D611D221FC3
:10119000749F3327A00D611D231F849F600D211DA7
:1011A000822F762F6A2F11249F5750409AF0F1F02A
:1011B00088234AF0EE0FFF1FBB1F661F771F881F93
:1011C00091505040A9F79E3F510580F00C943A0889
:1011D0000C9485085F3FE4F3983ED4F386957795A9
:1011E0006795B795F795E7959F5FC1F7FE2B880F39
:1011F000911D9695879597F908959F930E940C09E4
:101200000F9007FCEE5F0C9435090E941608880BBE
:10121000990B08950C9440080E946A08D8F3E8944A
:10122000E0E0BB279F57F0F02AED3FE049EC06C015
:10123000EE0FBB0F661F771F881F28F0B23A6207B8
:101240007307840728F0B25A620B730B840BE39583
:101250009A9572F7803830F49A95BB0F661F771F06
:10126000881FD2F790480C944B09EF93E0FF07C01A
:10127000A2EA2AED3FE049EC5FEB0E94DE060E9405
:1012800051080F90039401FC9058E8E6F0E00C94AC
:1012900057099F3F31F0915020F4879577956795D6
:1012A000B795880F911D9695879597F908959F9307
:1012B0008F937F936F93FF93EF939B01AC010E94F9
:1012C0009008EF91FF910E946B092F913F914F91F0
:1012D0005F910C949008DF93CF931F930F93FF922D
:1012E000EF92DF927B018C01689406C0DA2EEF0149
:1012F0000E94A308FE01E894A5912591359145919E
:101300005591A6F3EF010E94DE06FE019701A801A8
:10131000DA9469F7DF90EF90FF900F911F91CF91D2
:10132000DF9108950E94B706B7FF0895821B930BC3
:101330000895EE0FFF1F0590F491E02D0994F894A5
:10134000FFCF00000000FB023B01690168016865F6
:101350006C6C6F2020776F726C6421006E616E0080
:08136000696E66006F766600FD
:107E0000112484B714BE81FFF0D085E080938100F7
:107E100082E08093C00088E18093C10086E0809377
:107E2000C20080E18093C4008EE0C9D0259A86E02C
:107E300020E33CEF91E0309385002093840096BBD3
:107E4000B09BFECF1D9AA8958150A9F7CC24DD24C4
:107E500088248394B5E0AB2EA1E19A2EF3E0BF2EE7
:107E6000A2D0813461F49FD0082FAFD0023811F036
:107E7000013811F484E001C083E08DD089C08234E0
:107E800011F484E103C0853419F485E0A6D080C0E4
:107E9000853579F488D0E82EFF2485D0082F10E0AE
:107EA000102F00270E291F29000F111F8ED06801E7
:107EB0006FC0863521F484E090D080E0DECF843638
:107EC00009F040C070D06FD0082F6DD080E0C81688
:107ED00080E7D80618F4F601B7BEE895C0E0D1E017
:107EE00062D089930C17E1F7F0E0CF16F0E7DF06D8
:107EF00018F0F601B7BEE89568D007B600FCFDCFD4
:107F0000A601A0E0B1E02C9130E011968C91119780
:107F100090E0982F8827822B932B1296FA010C0160
:107F200087BEE89511244E5F5F4FF1E0A038BF0790
:107F300051F7F601A7BEE89507B600FCFDCF97BE46
:107F4000E89526C08437B1F42ED02DD0F82E2BD052
:107F50003CD0F601EF2C8F010F5F1F4F84911BD097
:107F6000EA94F801C1F70894C11CD11CFA94CF0C13
:107F7000D11C0EC0853739F428D08EE10CD085E9AC
:107F80000AD08FE07ACF813511F488E018D01DD067
:107F900080E101D065CF982F8091C00085FFFCCF94
:107FA0009093C60008958091C00087FFFCCF809118
:107FB000C00084FD01C0A8958091C6000895E0E648
:107FC000F0E098E1908380830895EDDF803219F02E
:107FD00088E0F5DFFFCF84E1DECF1F93182FE3DFCA
:107FE0001150E9F7F2DF1F91089580E0E8DFEE27F6
:047FF000FF270994CA
:027FFE00040479
:00000001FF
