:100000000C9471000C9439050C9412050C94990011
:100010000C9499000C9499000C9499000C949900FC
:100020000C9499000C9499000C9499000C949900EC
:100030000C9499000C9499000C9499000C949900DC
:100040000C94C8040C9499000C9499000C94990099
:100050000C9499000C9499000C9499000C949900BC
:100060000C9499000C94990005A84CCDB2D44EB9CB
:100070003836A9020C50B9918688083CA6AAAA2A4B
:10008000BE000000803F00000000240027002A007E
:1000900000000000250028002B00000000002300C5
:1000A00026002900040404040404040402020202D9
:1000B000020203030303030301020408102040802B
:1000C00001020408102001020408102000000008AA
:1000D000000201000003040700000000000000000F
:1000E000760711241FBECFEFD8E0DEBFCDBF21E0E1
:1000F000AAE4B1E001C01D92A038B207E1F711E017
:10010000A0E0B1E0E8EBF9E102C005900D92AA345D
:10011000B107D9F710E0C1E7D0E004C02197FE0194
:100120000E94E20AC037D107C9F70E9460050C940B
:10013000DA0C0C940000833081F028F4813099F0BF
:100140008230A9F008958730A9F08830C9F0843052
:10015000B1F4809180008F7D03C0809180008F7703
:1001600080938000089584B58F7784BD089584B509
:100170008F7DFBCF8091B0008F778093B000089582
:100180008091B0008F7DF9CFCF93DF93282F30E09F
:10019000F901E453FF4F8491F901E854FF4FD491E2
:1001A000F901EC55FF4FC491CC23A1F081110E94BD
:1001B0009B00EC2FF0E0EE0FFF1FE656FF4FA591DE
:1001C000B491EC91ED2381E090E009F480E0DF91BF
:1001D000CF91089580E090E0FACF1F93CF93DF9303
:1001E000282F30E0F901E453FF4F8491F901E854DE
:1001F000FF4FD491F901EC55FF4FC491CC23A9F0E6
:10020000162F81110E949B00EC2FF0E0EE0FFF1FD4
:10021000E057FF4FA591B4918FB7F894EC9111116D
:1002200008C0D095DE23DC938FBFDF91CF911F9163
:100230000895DE2BF8CFCF93DF9390E0FC01E854D4
:10024000FF4F24918C559F4FFC0184918823D1F05E
:1002500090E0880F991FFC01EA57FF4FA591B491D8
:10026000FC01E057FF4FC591D491623071F49FB704
:10027000F8943C91822F809583238C93E8812E2BD8
:1002800028839FBFDF91CF9108958FB7F894EC91A9
:100290002E2B2C938FBFF6CF1F93CF93DF93182F66
:1002A000EB0161E00E941B01209739F460E0812F8F
:1002B000DF91CF911F910C94ED00CF3FD10511F448
:1002C00061E0F5CFE12FF0E0E453FF4FE491E3303C
:1002D00031F140F4E130B1F0E230E1F0C038D10565
:1002E0007CF7E4CFE73029F1E83059F1E430B1F799
:1002F00080918000806280938000D0938B00C093B7
:100300008A0004C084B5806884BDC7BDDF91CF91E9
:100310001F91089584B5806284BDC8BDF7CF8091D8
:100320008000806880938000D0938900C09388000B
:10033000EDCF8091B00080688093B000C093B3008F
:10034000E5CF8091B00080628093B000C093B4008C
:10035000DDCF3FB7F89480915C0190915D01A09151
:100360005E01B0915F0126B5A89B05C02F3F19F033
:100370000196A11DB11D3FBFBA2FA92F982F882725
:10038000BC01CD01620F711D811D911D42E0660F00
:10039000771F881F991F4A95D1F7089581E08093B0
:1003A0004F01089581E080934E0108950895AF9222
:1003B000BF92CF92DF92EF92FF920F931F93CF9352
:1003C000DF936C017B018B01040F151FEB015E01B4
:1003D000AE18BF08C017D10759F06991D601ED9149
:1003E000FC910190F081E02DC6010995892B79F7E8
:1003F000C501DF91CF911F910F91FF90EF90DF909A
:10040000CF90BF90AF900895089590E080E0089558
:10041000FC0101900020E9F73197AF01481B590B0F
:10042000BC0184E691E00C94D7018F929F92AF9229
:10043000BF92CF92DF92EF92FF924B015C012FB7F8
:10044000F8946091600170916101809162019091D6
:1004500063012FBF0E94CE0720E030E44CE955E451
:100460000E942F0820E030E04AE754E40E949109FE
:100470006B017C010E94030A9B01AC01C701B6011C
:100480000E9424096B017C0120E030E040E05FE342
:100490000E94C90787FF19C0A7019601C701B601CD
:1004A0000E94250920E030E040E053E40E942F083C
:1004B000A50194010E942509FF90EF90DF90CF9055
:1004C000BF90AF909F908F90089520E030E040E083
:1004D0005FE3C701B6010E9424099B01AC010E94A1
:1004E00025099B01AC0160E070E080E89FE30E9479
:1004F0002409D8CFCF93DF93EC0160E08E810E9476
:10050000ED0061E08E810E94ED0060E08E810E942E
:10051000ED008BE891E00197F1F7DF91CF9108951D
:10052000CF92DF92EF92FF920F931F93CF93DF93BF
:100530006C017C0187E0E80EF11CD0E0C0E0062FE2
:1005400010E0B8010C2E02C0759567950A94E2F789
:100550006170F70181917F010E94ED002196C43006
:10056000D10579F7C601DF91CF911F910F91FF90CF
:10057000EF90DF90CF900C947A02CF92DF92EF92BF
:10058000FF920F931F93CF93DF93EC01F62E642F0E
:100590008C810E94ED008D818F3F19F060E00E94F8
:1005A000ED000F2D10E08F8584FF25C06E0187E0E0
:1005B000C80ED11CF12CE12CB8010E2C02C075958F
:1005C00067950A94E2F76170F60181916F010E94CC
:1005D000ED00FFEFEF1AFF0A88E0E816F10461F77B
:1005E000CE01DF91CF911F910F91FF90EF90DF909F
:1005F000CF900C947A02B80184E0759567958A953E
:10060000E1F7CE010E9490026F2DCE01DF91CF91D4
:100610001F910F91FF90EF90DF90CF900C9490027C
:1006200040E0682F84E691E00C94BD0281E00E94D6
:1006300010038BE39FE10197F1F70895CF93DF93C8
:10064000823029F4909173019860909373018093A4
:1006500077011092780180E48093790180E18093A2
:100660007A0180E580937B0161E0809168010E94BE
:100670001B01809169018F3F19F061E00E941B010D
:1006800061E080916A010E941B01C4E6D1E09E01F5
:10069000245631408091730184FD0BC084E090E0CA
:1006A00021962817390744F461E08E810E941B01CE
:1006B000EECF88E090E0F4CF8BE39DE00197F1F777
:1006C00060E0809168010E94ED0060E080916A0125
:1006D0000E94ED00809169018F3F19F060E00E9457
:1006E000ED008091730184FD34C063E084E691E005
:1006F0000E949002CBE4D6E4CE010197F1F763E0CB
:1007000084E691E00E9490022197F1F763E084E68D
:1007100091E00E94900283E592E00197F1F762E098
:1007200084E691E00E9490028091730180620E94B1
:10073000100384E0809374018CE00E9410030E94F7
:10074000160382E08093750186E0DF91CF910C94CF
:10075000100380620E9410038BE496E40197F1F786
:100760008091730180620E94100383E592E00197FB
:10077000F1F78091730180620E941003D5CF41E0B0
:100780000E94BD0281E090E008950F931F93CF93E4
:10079000DF93EC0188819981009759F02A813B8190
:1007A0002617370730F081E0DF91CF911F910F912D
:1007B00008958B016F5F7F4F0E940D0C009759F0D9
:1007C000998388831B830A832C813D81232B59F7CE
:1007D000FC011082E8CF80E0E7CFCF93DF93EC01FC
:1007E00088819981009711F00E94840B19821882E8
:1007F0001D821C821B821A82DF91CF9108950F9374
:100800001F93CF93DF93EC010C811D810D5F1F4F70
:10081000B8010E94C503882391F0288139818C8119
:100820009D8166E471E0820F931F0E94D30C1D83AB
:100830000C83CE01DF91CF911F910F910895CE01CE
:100840000E94ED03F6CFCF93DF93EC01198218825B
:100850001B821A821D821C8264E070E00E94C50324
:10086000811105C0CE01DF91CF910C94ED0384E09E
:1008700090E09D838C8368E171E088819981DF91AC
:10088000CF910C94D30CCF92DF92EF92FF920F9303
:100890001F93CF93DF93CDB7DEB762970FB6F8946F
:1008A000DEBF0FBECDBF8C01CB01F80111821082DB
:1008B00013821282158214824AE09E012F5F3F4FFD
:1008C0006901B9010E949407F60101900020E9F73F
:1008D00031977F01EC18FD08B701C8010E94C503DC
:1008E000811112C0C8010E94ED0362960FB6F89400
:1008F000DEBF0FBECDBFDF91CF911F910F91FF9053
:10090000EF90DF90CF900895F801F582E482B60170
:10091000808191810E94D30CE8CFEF92FF920F93D8
:100920001F93CF93DF93EC01FB01E080F180E11492
:10093000F10411F10481158101151105A9F08C81D3
:100940009D81080F191FB801CE010E94C50388239D
:1009500099F0288139818C819D81B701820F931F85
:100960000E94D30C1D830C83CE01DF91CF911F9188
:100970000F91FF90EF900895CE010E94ED03F4CF08
:10098000FC0180819181009711F00C94840B0895F3
:100990001F920F920FB60F9211242F933F938F93B4
:1009A0009F93AF93BF938091600190916101A0915B
:1009B0006201B091630130915B0123E0230F2D3779
:1009C00058F50196A11DB11D20935B018093600134
:1009D00090936101A0936201B093630180915C01E7
:1009E00090915D01A0915E01B0915F010196A11D02
:1009F000B11D80935C0190935D01A0935E01B09363
:100A00005F01BF91AF919F918F913F912F910F9077
:100A10000FBE0F901F90189526E8230F0296A11D78
:100A2000B11DD2CF1F920F920FB60F9211242F93A8
:100A30003F934F935F936F937F938F939F93AF9366
:100A4000BF93EF93FF93E0910201F09103010995A9
:100A5000FF91EF91BF91AF919F918F917F916F9196
:100A60005F914F913F912F910F900FBE0F901F906C
:100A700018951F920F920FB60F9211242F933F9348
:100A80004F935F936F937F938F939F93AF93BF9396
:100A9000EF93FF93E0910001F09101010995FF911F
:100AA000EF91BF91AF919F918F917F916F915F91E6
:100AB0004F913F912F910F900FBE0F901F9018955F
:100AC000CF93DF93CDB7DEB72C970FB6F894DEBF88
:100AD0000FBECDBF789484B5826084BD84B581603B
:100AE00084BD85B5826085BD85B5816085BD8091F9
:100AF0006E00816080936E00109281008091810071
:100B00008260809381008091810081608093810068
:100B1000809180008160809380008091B10084602A
:100B20008093B1008091B00081608093B00080918B
:100B30007A00846080937A0080917A00826080934A
:100B40007A0080917A00816080937A0080917A00A7
:100B5000806880937A001092C10082E00E941E0398
:100B60008DE191E00E9408020E94A9014B015C0105
:100B700028EBC22E2BE0D22EE12CF12C0E94A901F1
:100B8000681979098A099B09683E734081059105B6
:100B9000A8F321E0C21AD108E108F10888EE880E16
:100BA00083E0981EA11CB11CC114D104E104F1041E
:100BB00029F70E9416038AE291E00E94080262E08F
:100BC00087E00E941B0162E084E00E941B0162E05A
:100BD00082E00E941B0162E083E00E941B018EEC18
:100BE00091E09093010180930001809169008C7FD6
:100BF000826080936900E89A82ED91E0909303010E
:100C00008093020180916900837F886080936900EE
:100C1000E99A00E010E0332433948091530181116C
:100C20000AC0809104019091050190935201809334
:100C300051013092530187E00E94C400892B09F0D2
:100C40003FC08091500181113BC0309250010E9401
:100C500016036091040170910501CE0101960E9476
:100C60004304CE0107960E942304BE016F5F7F4FAD
:100C7000CE0107960E948D040E94FF03FC0144816F
:100C800055816081718184E691E00E94D701CE0197
:100C900007960E94C004CE0101960E94C004E09114
:100CA0007701E23008F01CC1E150F0E0EC59FE4F52
:100CB000848980680E94100386E391E00E94080204
:100CC00080915001882309F404C18FB7F8944091B2
:100CD00060015091610160916201709163018FBF69
:100CE00080914F01882371F010924F01809104018F
:100CF000909105018C3391052CF401969093050198
:100D00008093040180914E01882371F010924E016E
:100D100080910401909105018B3091052CF0019791
:100D2000909305018093040180914A0190914B01B9
:100D3000A0914C01B0914D016A017B01C81AD90AFA
:100D4000EA0AFB0AD701C6014497A105B10508F4D8
:100D500069C040934A0150934B0160934C017093DA
:100D60004D016091040170910501072E000C880B64
:100D7000990B0E94D0072BED3FE049EC50E40E9414
:100D80002F082B013C01A12CBB24B3942FB7F8945E
:100D900060916001709161018091620190916301A5
:100DA0002FBF0E94CE07A30192010E942F0820E0CE
:100DB00030E04AE754E40E9491090E94600A20E072
:100DC00030E040E053E40E942F086B017C0120E0FA
:100DD00030E0A9010E945B0A18160CF083C060E0A5
:100DE00070E080E093E40E9415029B01AC01C70112
:100DF000B6010E945B0A912C812C6FEF70E01816EF
:100E00002CF088248A94912C70E060E086E00E94A7
:100E10004C01B40185E00E944C0121E0A21AB10806
:100E200009F0B4CF84E00E94C400892B79F41092B9
:100E300050010E94160382E390E090930501809395
:100E4000040184E00E94C400892BD9F3A09004011E
:100E5000B09005018091510190915201A816B906F8
:100E6000C1F1E1E0809177018111E0E0E195F0E0EE
:100E7000EC59FE4F848980680E941003B501CE01B1
:100E800001960E944304CE0107960E942304BE01EE
:100E90006F5F7F4FCE0107960E948D040E94FF0373
:100EA000FC01448155816081718184E691E00E945A
:100EB000D701CE0107960E94C004CE0101960E9480
:100EC000C004809104019091050190935201809398
:100ED00051010115110509F4A0CE0E9400009BCE1E
:100EE000E1E0E3CE60E070E0CB017DCFE4E6F1E04D
:100EF0001382128280E191E0918380838DE084836C
:100F00008FEF85838CE086838BE087838AE0808700
:100F100089E0818788E08287138614861586168685
:100F2000178681E00C941E03BB274A3031F49923C5
:100F300022F4BDE2909581959F4F0C94A007BB27AA
:100F4000FB015527AA27880F991FAA1FA41710F085
:100F5000A41B83955051B9F7A05DAA3308F0A95D91
:100F6000A193009779F7B111B1931192CB010C9431
:100F7000B907DC01FC01672F71917723E1F7329704
:100F800004C07C916D9370836291AE17BF07C8F364
:100F900008950E940B0808F481E00895E89409C0C0
:100FA00097FB3EF490958095709561957F4F8F4F9C
:100FB0009F4F9923A9F0F92F96E9BB279395F695B2
:100FC000879577956795B795F111F8CFFAF4BB0F30
:100FD00011F460FF1BC06F5F7F4F8F4F9F4F16C094
:100FE000882311F096E911C0772321F09EE8872F1E
:100FF000762F05C0662371F096E8862F70E060E0DA
:101000002AF09A95660F771F881FDAF7880F969552
:10101000879597F90895990F0008550FAA0BE0E8F6
:10102000FEEF16161706E807F907C0F012161306AA
:10103000E407F50798F0621B730B840B950B39F4EA
:101040000A2661F0232B242B252B21F408950A2650
:1010500009F4A140A6958FEF811D811D08950E947E
:1010600042080C94B3080E94A50838F00E94AC080E
:1010700020F0952311F00C949C080C94A2081124E4
:101080000C94E7080E94C40870F3959FC1F3950F74
:1010900050E0551F629FF001729FBB27F00DB11DFC
:1010A000639FAA27F00DB11DAA1F649F6627B00D8C
:1010B000A11D661F829F2227B00DA11D621F739F75
:1010C000B00DA11D621F839FA00D611D221F749F83
:1010D0003327A00D611D231F849F600D211D822FCA
:1010E000762F6A2F11249F5750409AF0F1F08823F1
:1010F0004AF0EE0FFF1FBB1F661F771F881F91501E
:101100005040A9F79E3F510580F00C949C080C9428
:10111000E7085F3FE4F3983ED4F3869577956795AB
:10112000B795F795E7959F5FC1F7FE2B880F911D47
:101130009695879597F9089597F99F6780E870E0ED
:1011400060E008959FEF80EC089500240A9416163D
:10115000170618060906089500240A9412161306A5
:10116000140605060895092E0394000C11F4882333
:1011700052F0BB0F40F4BF2B11F460FF04C06F5F4F
:101180007F4F8F4F9F4F089557FD9058440F551F25
:1011900059F05F3F71F04795880F97FB991F61F0F9
:1011A0009F3F79F087950895121613061406551F70
:1011B000F2CF4695F1DF08C0161617061806991FDC
:1011C000F1CF86957105610508940895E894BB27D1
:1011D00066277727CB0197F908952F923F924F9278
:1011E0005F926F927F928F929F92AF92BF92CF92B7
:1011F000DF92EF92FF920F931F93CF93DF93CDB7C0
:10120000DEB7CA1BDB0B0FB6F894DEBF0FBECDBF37
:1012100009942A88398848885F846E847D848C8408
:101220009B84AA84B984C884DF80EE80FD800C8111
:101230001B81AA81B981CE0FD11D0FB6F894DEBFF4
:101240000FBECDBFED0108955058BB27AA270E94BD
:101250003C090C94B3080E94A50838F00E94AC0821
:1012600020F039F49F3F19F426F40C94A2080EF4F0
:10127000E095E7FB0C949C08E92F0E94C40858F302
:10128000BA17620773078407950720F079F4A6F56B
:101290000C94E6080EF4E0950B2EBA2FA02D0B014E
:1012A000B90190010C01CA01A0011124FF27591BAB
:1012B00099F0593F50F4503E68F11A16F040A22FB1
:1012C000232F342F4427585FF3CF46953795279522
:1012D000A795F0405395C9F77EF41F16BA0B620B21
:1012E000730B840BBAF09150A1F0FF0FBB1F661F68
:1012F000771F881FC2F70EC0BA0F621F731F841FAB
:1013000048F4879577956795B795F7959E3F08F0D0
:10131000B0CF9395880F08F09927EE0F9795879592
:1013200008950E94A5090C94B3080E94AC0858F0D7
:101330000E94A50840F029F45F3F29F00C949C0816
:1013400051110C94E7080C94A2080E94C40868F399
:101350009923B1F3552391F3951B550BBB27AA276E
:1013600062177307840738F09F5F5F4F220F331FA8
:10137000441FAA1FA9F335D00E2E3AF0E0E832D070
:1013800091505040E695001CCAF72BD0FE2F29D073
:10139000660F771F881FBB1F261737074807AB0745
:1013A000B0E809F0BB0B802DBF01FF2793585F4FBA
:1013B0003AF09E3F510578F00C949C080C94E70895
:1013C0005F3FE4F3983ED4F3869577956795B7959C
:1013D000F7959F5FC9F7880F911D9695879597F9A7
:1013E0000895E1E0660F771F881FBB1F6217730720
:1013F0008407BA0720F0621B730B840BBA0BEE1F35
:1014000088F7E09508950E94430A90F09F3748F4CA
:10141000911116F00C94E70860E070E080E89FEB13
:10142000089526F41B16611D711D811D0C941A0A66
:101430000C94350A882371F4772321F09850872B78
:10144000762F07C0662311F499270DC09051862B83
:1014500070E060E02AF09A95660F771F881FDAF730
:10146000880F9695879597F908959F3F31F0915091
:1014700020F4879577956795B795880F911D969578
:10148000879597F908950E94CC08A0F0BEE7B91798
:1014900088F4BB279F3860F41616B11D672F782F8C
:1014A0008827985FF7CF869577956795B11D9395B7
:1014B0009639C8F308950E940B0808F48FEF089539
:1014C0009F930E946A0A0F9007FCEE5F0C94930AA8
:1014D0000C94A2080E94CC08D8F3E894E0E0BB2763
:1014E0009F57F0F02AED3FE049EC06C0EE0FBB0F2E
:1014F000661F771F881F28F0B23A620773078407B8
:1015000028F0B25A620B730B840BE3959A9572F72D
:10151000803830F49A95BB0F661F771F881FD2F76B
:1015200090480C94370AEF93E0FF07C0A2EA2AED37
:101530003FE049EC5FEB0E943C090E94B3080F902A
:10154000039401FC9058E8E6F0E00C94A70A9F93FE
:101550008F937F936F93FF93EF939B01AC010E9456
:101560002F08EF91FF910E94BB0A2F913F914F915D
:101570005F910C942F08DF93CF931F930F93FF92EB
:10158000EF92DF927B018C01689406C0DA2EEF01A6
:101590000E944208FE01E894A5912591359145915C
:1015A0005591A6F3EF010E943C09FE019701A801A5
:1015B000DA9469F7DF90EF90FF900F911F91CF9130
:1015C000DF910895EE0FFF1F0590F491E02D09942F
:1015D0000F931F93CF93DF938230910510F482E035
:1015E00090E0E0917E01F0917F0130E020E0B0E0FA
:1015F000A0E0309799F42115310509F44AC0281B61
:10160000390B24303105D8F58A819B81611571052C
:1016100089F1FB0193838283FE0111C040815181D6
:101620000281138148175907E0F04817590799F4C8
:10163000109761F012960C93129713961C933296A2
:10164000CF01DF91CF911F910F91089500937E01FB
:1016500010937F01F4CF2115310551F04217530744
:1016600038F0A901DB019A01BD01DF01F801C1CF0A
:10167000EF01F9CF90937F0180937E01CDCFFE01E2
:10168000E20FF31F8193919322503109398328830C
:10169000D7CF20917C0130917D01232B41F4209103
:1016A00008013091090130937D0120937C01209144
:1016B0000601309107012115310541F42DB73EB7E0
:1016C00040910A0150910B01241B350BE0917C01E4
:1016D000F0917D01E217F307A0F42E1B3F0B2817B2
:1016E000390778F0AC014E5F5F4F2417350748F09B
:1016F0004E0F5F1F50937D0140937C018193919326
:101700009FCFF0E0E0E09CCFCF93DF930097E9F02C
:10171000FC01329713821282A0917E01B0917F0169
:10172000ED0130E020E01097A1F420813181820F9B
:10173000931F20917C0130917D012817390709F012
:1017400061C0F0937D01E0937C01DF91CF9108951A
:10175000EA01CE17DF07E8F54A815B819E0141155A
:101760005105B1F7E901FB83EA8349915991C40F0F
:10177000D51FEC17FD0761F4808191810296840FDB
:10178000951FE90199838883828193819B838A8352
:10179000F0E0E0E012968D919C9113970097B9F5D7
:1017A0002D913C911197CD010296820F931F2091AC
:1017B0007C0130917D012817390739F6309751F5B2
:1017C00010927F0110927E01B0937D01A0937C0165
:1017D000BCCFD383C28340815181840F951FC8172A
:1017E000D90761F44E5F5F4F88819981480F591F77
:1017F000518340838A819B819383828321153105A4
:1018000009F0B0CFF0937F01E0937E019ECFFD0100
:10181000DC01C0CF13821282D7CFB0E0A0E0E3E1B9
:10182000FCE00C94EF088C01009751F4CB010E946E
:10183000E80A8C01C801CDB7DEB7E0E10C940B09D2
:10184000FC01E60FF71F9C0122503109E217F30754
:1018500008F49DC0D901CD91DC911197C617D70727
:1018600098F0C530D10530F3CE010497861797075D
:1018700008F3C61BD70B2297C193D1936D937C932A
:10188000CF010E94840BD6CF5B01AC1ABD0A4C017C
:101890008C0E9D1EA0917E01B0917F01512C412C98
:1018A000F12CE12C109731F580917C0190917D0114
:1018B0008815990509F05CC04616570608F058C00F
:1018C0008091060190910701009741F48DB79EB772
:1018D00040910A0150910B01841B950BE817F90701
:1018E00008F055C0F0937D01E0937C01F90171830C
:1018F0006083A0CF8D919C91119712966C90129756
:1019000013967C901397A815B90559F56C0142E020
:10191000C40ED11CCA14DB0420F1AC014A195B09C6
:10192000DA011296159780F06282738251834083A8
:10193000D9016D937C93E114F10471F0D7011396F2
:10194000FC93EE93129776CF22968C0F9D1FF90190
:1019500091838083F301EFCFF0937F01E0937E01C9
:1019600069CF4816590608F42C017D01D3019ACF9E
:10197000CB010E94E80A7C01009749F0AE01B80152
:101980000E94CA0CC8010E94840B870153CF10E04B
:1019900000E050CFFB01DC0102C001900D924150EC
:1019A0005040D8F70895FB01DC0101900D92002012
:0819B000E1F70895F894FFCF60
:1019B800D601D6013200000080018000000000003E
:1019C800BF03D7010502040266203D200048656C6C
:1019D8006C6F20576F726C642100507265737320AE
:1019E800537461727400662072616E6765203130CD
:0A19F80020746F20363020487A007A
:00000001FF
