:100000000C9471000C9499000C9499000C94990034
:100010000C9499000C9499000C9499000C949900FC
:100020000C9499000C9499000C9499000C948B04F6
:100030000C9499000C9499000C9499000C949900DC
:100040000C9441040C9499000C9499000C94990020
:100050000C9499000C9499000C9499000C949900BC
:100060000C9499000C94990005A84CCDB2D44EB9CB
:100070003836A9020C50B9918688083CA6AAAA2A4B
:10008000BE000000803F00000000240027002A007E
:1000900000000000250028002B00000000002300C5
:1000A00026002900040404040404040402020202D9
:1000B000020203030303030301020408102040802B
:1000C00001020408102001020408102000000008AA
:1000D000000201000003040700000000000000000F
:1000E0009D0611241FBECFEFD8E0DEBFCDBF21E0BB
:1000F000A8E4B1E001C01D92AC37B207E1F711E00E
:10010000A0E0B1E0E6E7F6E102C005900D92A83468
:10011000B107D9F710E0C1E7D0E004C02197FE0194
:100120000E944109C037D107C9F70E94C2040C944C
:10013000390B0C940000833081F028F4813099F061
:100140008230A9F008958730A9F08830C9F0843052
:10015000B1F4809180008F7D03C0809180008F7703
:1001600080938000089584B58F7784BD089584B509
:100170008F7DFBCF8091B0008F778093B000089582
:100180008091B0008F7DF9CFCF93DF93282F30E09F
:10019000F901E453FF4F8491F901E854FF4FD491E2
:1001A000F901EC55FF4FC491CC23A1F081110E94BD
:1001B0009B00EC2FF0E0EE0FFF1FE656FF4FA591DE
:1001C000B491EC91ED2381E090E009F480E0DF91BF
:1001D000CF91089580E090E0FACF1F93CF93DF9303
:1001E000282F30E0F901E453FF4F8491F901E854DE
:1001F000FF4FD491F901EC55FF4FC491CC23A9F0E6
:10020000162F81110E949B00EC2FF0E0EE0FFF1FD4
:10021000E057FF4FA591B4918FB7F894EC9111116D
:1002200008C0D095DE23DC938FBFDF91CF911F9163
:100230000895DE2BF8CFCF93DF9390E0FC01E854D4
:10024000FF4F24918C559F4FFC0184918823D1F05E
:1002500090E0880F991FFC01EA57FF4FA591B491D8
:10026000FC01E057FF4FC591D491623071F49FB704
:10027000F8943C91822F809583238C93E8812E2BD8
:1002800028839FBFDF91CF9108958FB7F894EC91A9
:100290002E2B2C938FBFF6CF1F93CF93DF93182F66
:1002A000EB0161E00E941B01209739F460E0812F8F
:1002B000DF91CF911F910C94ED00CF3FD10511F448
:1002C00061E0F5CFE12FF0E0E453FF4FE491E3303C
:1002D00031F140F4E130B1F0E230E1F0C038D10565
:1002E0007CF7E4CFE73029F1E83059F1E430B1F799
:1002F00080918000806280938000D0938B00C093B7
:100300008A0004C084B5806884BDC7BDDF91CF91E9
:100310001F91089584B5806284BDC8BDF7CF8091D8
:100320008000806880938000D0938900C09388000B
:10033000EDCF8091B00080688093B000C093B3008F
:10034000E5CF8091B00080628093B000C093B4008C
:10035000DDCF3FB7F89480915C0190915D01A09151
:100360005E01B0915F0126B5A89B05C02F3F19F033
:100370000196A11DB11D3FBFBA2FA92F982F882725
:10038000BC01CD01620F711D811D911D42E0660F00
:10039000771F881F991F4A95D1F70895AF92BF9292
:1003A000CF92DF92EF92FF920F931F93CF93DF9341
:1003B0006C017B018B01040F151FEB015E01AE1870
:1003C000BF08C017D10759F06991D601ED91FC9192
:1003D0000190F081E02DC6010995892B79F7C501BF
:1003E000DF91CF911F910F91FF90EF90DF90CF9011
:1003F000BF90AF900895089590E080E00895FC01CB
:1004000001900020E9F73197AF01481B590BBC015F
:1004100080E691E00C94CE010F931F93CF93DF936E
:10042000EC0188819981009759F02A813B81261738
:10043000370730F081E0DF91CF911F910F91089540
:100440008B016F5F7F4F0E946C0A009759F0998370
:1004500088831B830A832C813D81232B59F7FC0160
:100460001082E8CF80E0E7CFEF92FF920F931F93C7
:10047000CF93DF936115710541F480E0DF91CF9157
:100480001F910F91FF90EF90089541155105B1F024
:100490007B01EC010C811D81040F151FB8010E9426
:1004A0000C02882351F3288139818C819D81B70109
:1004B000820F931F0E94320B1D830C8381E0DECFDD
:1004C000CF93DF93EC0188819981009711F00E940E
:1004D000E309198218821D821C821B821A82DF9115
:1004E000CF910895CF93DF93EC0143E050E064E4B3
:1004F00071E00E943402811103C0CE010E946002AB
:10050000CE01DF91CF910895CF93DF93EC01198253
:1005100018821B821A821D821C8264E070E00E9495
:100520000C02811105C0CE01DF91CF910C946002C5
:1005300084E090E09D838C8366E171E088819981FD
:10054000DF91CF910C94320BCF92DF92EF92FF921A
:100550000F931F93CF93DF93CDB7DEB762970FB69C
:10056000F894DEBF0FBECDBF8C01CB01F801118224
:10057000108213821282158214824AE09E012F5F3C
:100580003F4F6901B9010E94BB06F60101900020AE
:10059000E9F731977F01EC18FD08B701C8010E9407
:1005A0000C02811112C0C8010E94600262960FB64F
:1005B000F894DEBF0FBECDBFDF91CF911F910F9199
:1005C000FF90EF90DF90CF900895F801F582E482DC
:1005D000B601808191810E94320BE8CFFC018081BD
:1005E0009181009711F00C94E3090895CF93DF9364
:1005F000EC0160E08E810E94ED0061E08E810E943E
:10060000ED0060E08E810E94ED008BE891E00197A3
:10061000F1F7DF91CF910895CF92DF92EF92FF92A1
:100620000F931F93CF93DF936C017C0187E0E80E5B
:10063000F11CD0E0C0E0062F10E0B8010C2E02C083
:10064000759567950A94E2F76170F70181917F01D2
:100650000E94ED002196C430D10579F7C601DF91E3
:10066000CF911F910F91FF90EF90DF90CF900C945E
:10067000F602CF92DF92EF92FF920F931F93CF93E8
:10068000DF93EC01F62E642F8C810E94ED008D81AA
:100690008F3F19F060E00E94ED000F2D10E08F8574
:1006A00084FF25C06E0187E0C80ED11CF12CE12C1F
:1006B000B8010E2C02C0759567950A94E2F7617037
:1006C000F60181916F010E94ED00FFEFEF1AFF0A22
:1006D00088E0E816F10461F7CE01DF91CF911F9118
:1006E0000F91FF90EF90DF90CF900C94F602B8013D
:1006F00084E0759567958A95E1F7CE010E940C0319
:100700006F2DCE01DF91CF911F910F91FF90EF9050
:10071000DF90CF900C940C0340E0682F80E691E0CE
:100720000C94390381E00E948C038BE39FE10197D5
:10073000F1F70895CF93DF93823029F490916F0100
:10074000986090936F01809373011092740180E41C
:100750008093750180E18093760180E58093770135
:1007600061E0809164010E941B01809165018F3FCF
:1007700019F061E00E941B0161E0809166010E9416
:100780001B01C0E6D1E09E012056314080916F01EF
:1007900084FD0BC084E090E021962817390744F4CB
:1007A00061E08E810E941B01EECF88E090E0F4CFE3
:1007B0008BE39DE00197F1F760E0809164010E9476
:1007C000ED0060E0809166010E94ED00809165017E
:1007D0008F3F19F060E00E94ED0080916F0184FD71
:1007E00034C063E080E691E00E940C03CBE4D6E4E1
:1007F000CE010197F1F763E080E691E00E940C03DF
:100800002197F1F763E080E691E00E940C0383E515
:1008100092E00197F1F762E080E691E00E940C031C
:1008200080916F0180620E948C0384E0809370014C
:100830008CE00E948C030E94920382E080937101FD
:1008400086E0DF91CF910C948C0380620E948C0330
:100850008BE496E40197F1F780916F0180620E942A
:100860008C0383E592E00197F1F780916F0180623C
:100870000E948C03D5CF41E00E94390381E090E0D3
:1008800008951F920F920FB60F9211242F933F934A
:100890008F939F93AF93BF9380915801909159018B
:1008A000A0915A01B0915B013091570123E0230FD1
:1008B0002D3758F50196A11DB11D20935701809346
:1008C000580190935901A0935A01B0935B01809114
:1008D0005C0190915D01A0915E01B0915F01019674
:1008E000A11DB11D80935C0190935D01A0935E01F9
:1008F000B0935F01BF91AF919F918F913F912F91E5
:100900000F900FBE0F901F90189526E8230F0296A8
:10091000A11DB11DD2CF1F920F920FB60F921124BD
:100920002F933F938F939F9380914A0190914B0116
:100930008F3F9105ECF08FEF9FEF90930101809333
:100940000001209100013091010180914A019091B4
:100950004B01820F931F90934B0180934A019F910B
:100960008F913F912F910F900FBE0F901F90189570
:1009700080914A0190914B011816190614F381E0F9
:1009800090E0DBCFCF93DF93CDB7DEB72C970FB6D8
:10099000F894DEBF0FBECDBF789484B5826084BD6D
:1009A00084B5816084BD85B5826085BD85B5816073
:1009B00085BD80916E00816080936E0010928100F1
:1009C00080918100826080938100809181008160AC
:1009D000809381008091800081608093800080916D
:1009E000B10084608093B1008091B00081608093F9
:1009F000B00080917A00846080937A0080917A00C0
:100A0000826080937A0080917A00816080937A007E
:100A100080917A00806880937A001092C10082E011
:100A20000E949A038BE191E00E94FF010E94A901BC
:100A30004B015C0138EBC32E3BE0D32EE12CF12CB3
:100A40000E94A901681979098A099B09683E7340C7
:100A500081059105A8F321E0C21AD108E108F10847
:100A600088EE880E83E0981EA11CB11CC114D1042D
:100A7000E104F10429F70E94920388E291E00E94C8
:100A8000FF0162E087E00E941B0162E084E00E94B7
:100A90001B0162E082E00E941B0162E083E00E9491
:100AA0001B0110928000109281001092850010921C
:100AB000840088EE93E09093890080938800809171
:100AC00081008860809381008091810081608093A3
:100AD000810080916F00826080936F0085B5887F70
:100AE000816085BD789490E0292E90E0392E22E334
:100AF000C22ED12C80914F0181110BC08091020137
:100B00009091030190934E0180934D01F1E0F09399
:100B10004F0187E00E94C400892B09F049C08091F1
:100B20004C01811145C021E020934C010E949203A9
:100B30006091020170910301CE0101960E94A4020E
:100B4000CE0107960E9484024D815E8169817A817F
:100B5000CE0107960E943402811104C0CE0107968F
:100B60000E946002CE0107960E947202FC0144813D
:100B700055816081718180E691E00E94CE01CE01B5
:100B800007960E94EE02CE0101960E94EE02E091CD
:100B90007301E23008F0CFC0E150F0E0E05AFE4FC0
:100BA000848980680E948C0384E391E00E94FF01A5
:100BB00080914C01882309F4B7C0609102017091C3
:100BC0000301072E000C880B990B0E94F2062BEDF7
:100BD0003FE049EC50E40E9451074B015C0110E0FA
:100BE00000E0B801012E000C880B990B0E94F20660
:100BF000A50194010E94510720E030E040E85BE34A
:100C00000E9451070E944B08E0904A01F0904B016E
:100C100020E030E040E053E40E9451072B013C010A
:100C2000B701FF0C880B990B0E94F2069B01AC01E7
:100C3000C301B2010E944608F12CE12C6FEF70E075
:100C400018162CF0EE24EA94F12C70E060E086E0B7
:100C50000E944C01B70185E00E944C010F5F1F4FBD
:100C60000115F1E01F0709F0BCCF84E00E94C40029
:100C7000892B69F410924C010E949203D0920301D7
:100C8000C092020184E00E94C400892BD9F3009134
:100C900002011091030180914D0190914E010817BE
:100CA000190709F441C0E1E0809173018111E0E08E
:100CB000E195F0E0E05AFE4F848980680E948C0341
:100CC000B801CE0101960E94A402CE0107960E94AF
:100CD00084024D815E8169817A81CE0107960E94EE
:100CE0003402811104C0CE0107960E946002CE0139
:100CF00007960E947202FC014481558160817181D6
:100D000080E691E00E94CE01CE0107960E94EE029D
:100D1000CE0101960E94EE028091020190910301A2
:100D200090934E0180934D012114310409F4E2CED9
:100D30000E940000DFCEE1E030CFE0E6F1E0138278
:100D400012828EE091E0918380838DE084838FEF27
:100D500085838CE086838BE087838AE0808789E0C7
:100D6000818788E082871386148615861686178603
:100D700081E00C949A03BB274A3031F4992322F482
:100D8000BDE2909581959F4F0C94C706BB27FB0150
:100D90005527AA27880F991FAA1FA41710F0A41B74
:100DA00083955051B9F7A05DAA3308F0A95DA193CE
:100DB000009779F7B111B1931192CB010C94E00631
:100DC000DC01FC01672F71917723E1F7329704C0B2
:100DD0007C916D9370836291AE17BF07C8F308953D
:100DE000E89409C097FB3EF49095809570956195C5
:100DF0007F4F8F4F9F4F9923A9F0F92F96E9BB277B
:100E00009395F695879577956795B795F111F8CFF6
:100E1000FAF4BB0F11F460FF1BC06F5F7F4F8F4F61
:100E20009F4F16C0882311F096E911C0772321F057
:100E30009EE8872F762F05C0662371F096E8862FEF
:100E400070E060E02AF09A95660F771F881FDAF746
:100E5000880F9695879597F90895990F0008550F73
:100E6000AA0BE0E8FEEF16161706E807F907C0F030
:100E700012161306E407F50798F0621B730B840B38
:100E8000950B39F40A2661F0232B242B252B21F412
:100E900008950A2609F4A140A6958FEF811D811DB2
:100EA00008950E9464070C94D5070E94C70738F084
:100EB0000E94CE0720F0952311F00C94BE070C94ED
:100EC000C40711240C9409080E94E60770F3959F4B
:100ED000C1F3950F50E0551F629FF001729FBB2731
:100EE000F00DB11D639FAA27F00DB11DAA1F649FCD
:100EF0006627B00DA11D661F829F2227B00DA11D80
:100F0000621F739FB00DA11D621F839FA00D611D05
:100F1000221F749F3327A00D611D231F849F600D26
:100F2000211D822F762F6A2F11249F5750409AF04F
:100F3000F1F088234AF0EE0FFF1FBB1F661F771FDB
:100F4000881F91505040A9F79E3F510580F00C94A6
:100F5000BE070C9409085F3FE4F3983ED4F38695EE
:100F600077956795B795F795E7959F5FC1F7FE2B46
:100F7000880F911D9695879597F9089597F99F6722
:100F800080E870E060E008959FEF80EC0895002411
:100F90000A941616170618060906089500240A94DE
:100FA00012161306140605060895092E0394000C64
:100FB00011F4882352F0BB0F40F4BF2B11F460FFF3
:100FC00004C06F5F7F4F8F4F9F4F089557FD90581C
:100FD000440F551F59F05F3F71F04795880F97FBFD
:100FE000991F61F09F3F79F08795089512161306B7
:100FF0001406551FF2CF4695F1DF08C016161706E6
:101000001806991FF1CF869571056105089408951A
:10101000E894BB2766277727CB0197F908952F928D
:101020003F924F925F926F927F928F929F92AF9278
:10103000BF92CF92DF92EF92FF920F931F93CF93C5
:10104000DF93CDB7DEB7CA1BDB0B0FB6F894DEBF5C
:101050000FBECDBF09942A88398848885F846E8482
:101060007D848C849B84AA84B984C884DF80EE80CC
:10107000FD800C811B81AA81B981CE0FD11D0FB6D5
:10108000F894DEBF0FBECDBFED0108950E942D077D
:1010900008F48FEF08959F930E9455080F9007FC66
:1010A000EE5F0C947E080C94C4070E94EE07D8F300
:1010B000E894E0E0BB279F57F0F02AED3FE049ECD1
:1010C00006C0EE0FBB0F661F771F881F28F0B23ACD
:1010D00062077307840728F0B25A620B730B840B04
:1010E000E3959A9572F7803830F49A95BB0F661F96
:1010F000771F881FD2F790480C94FA08EF93E0FF0F
:1011000007C0A2EA2AED3FE049EC5FEB0E94A3088A
:101110000E94D5070F90039401FC9058E8E6F0E098
:101120000C9406090E94C70738F00E94CE0720F0F1
:1011300039F49F3F19F426F40C94C4070EF4E0959B
:10114000E7FB0C94BE07E92F0E94E60758F3BA1795
:10115000620773078407950720F079F4A6F50C94CD
:1011600008080EF4E0950B2EBA2FA02D0B01B90143
:1011700090010C01CA01A0011124FF27591B99F00D
:10118000593F50F4503E68F11A16F040A22F232F19
:10119000342F4427585FF3CF469537952795A79569
:1011A000F0405395C9F77EF41F16BA0B620B730B10
:1011B000840BBAF09150A1F0FF0FBB1F661F771F81
:1011C000881FC2F70EC0BA0F621F731F841F48F436
:1011D000879577956795B795F7959E3F08F0B0CFBF
:1011E0009395880F08F09927EE0F979587950895A6
:1011F0009F3F31F0915020F4879577956795B7958B
:10120000880F911D9695879597F908959F938F93D1
:101210007F936F93FF93EF939B01AC010E94510763
:10122000EF91FF910E941A092F913F914F915F9189
:101230000C945107DF93CF931F930F93FF92EF927C
:10124000DF927B018C01689406C0DA2EEF010E94C8
:101250006407FE01E894A59125913591459155913A
:10126000A6F3EF010E94A308FE019701A801DA94FA
:1012700069F7DF90EF90FF900F911F91CF91DF9171
:101280000895EE0FFF1F0590F491E02D09940F9340
:101290001F93CF93DF938230910510F482E090E0AA
:1012A000E0917A01F0917B0130E020E0B0E0A0E035
:1012B000309799F42115310509F44AC0281B390BE0
:1012C00024303105D8F58A819B816115710589F13A
:1012D000FB0193838283FE0111C040815181028111
:1012E000138148175907E0F04817590799F41097E8
:1012F00061F012960C93129713961C933296CF01BD
:10130000DF91CF911F910F91089500937A0110936F
:101310007B01F4CF2115310551F04217530738F006
:10132000A901DB019A01BD01DF01F801C1CFEF0185
:10133000F9CF90937B0180937A01CDCFFE01E20F2C
:10134000F31F819391932250310939832883D7CF9A
:101350002091780130917901232B41F420910601ED
:101360003091070130937901209378012091040195
:10137000309105012115310541F42DB73EB740915B
:10138000080150910901241B350BE0917801F0917F
:101390007901E217F307A0F42E1B3F0B281739073A
:1013A00078F0AC014E5F5F4F2417350748F04E0FC1
:1013B0005F1F5093790140937801819391939FCF60
:1013C000F0E0E0E09CCFCF93DF930097E9F0FC01E1
:1013D000329713821282A0917A01B0917B01ED01C4
:1013E00030E020E01097A1F420813181820F931F1B
:1013F00020917801309179012817390709F061C0EF
:10140000F0937901E0937801DF91CF910895EA019B
:10141000CE17DF07E8F54A815B819E014115510532
:10142000B1F7E901FB83EA8349915991C40FD51FB4
:10143000EC17FD0761F4808191810296840F951F5E
:10144000E90199838883828193819B838A83F0E079
:10145000E0E012968D919C9113970097B9F52D912C
:101460003C911197CD010296820F931F2091780134
:10147000309179012817390739F6309751F51092D4
:101480007B0110927A01B0937901A0937801BCCFCF
:10149000D383C28340815181840F951FC817D90718
:1014A00061F44E5F5F4F88819981480F591F5183C6
:1014B00040838A819B81938382832115310509F0C2
:1014C000B0CFF0937B01E0937A019ECFFD01DC0168
:1014D000C0CF13821282D7CFB0E0A0E0E2E7FAE0FB
:1014E0000C9411088C01009751F4CB010E9447091C
:1014F0008C01C801CDB7DEB7E0E10C942D08FC01EA
:10150000E60FF71F9C0122503109E217F30708F498
:101510009DC0D901CD91DC911197C617D70798F0DE
:10152000C530D10530F3CE0104978617970708F32D
:10153000C61BD70B2297C193D1936D937C93CF0198
:101540000E94E309D6CF5B01AC1ABD0A4C018C0E98
:101550009D1EA0917A01B0917B01512C412CF12C60
:10156000E12C109731F580917801909179018815DF
:10157000990509F05CC04616570608F058C08091DE
:10158000040190910501009741F48DB79EB74091F9
:10159000080150910901841B950BE817F90708F021
:1015A00055C0F0937901E0937801F901718360836C
:1015B000A0CF8D919C91119712966C9012971396D3
:1015C0007C901397A815B90559F56C0142E0C40E3B
:1015D000D11CCA14DB0420F1AC014A195B09DA0101
:1015E0001296159780F06282738251834083D901ED
:1015F0006D937C93E114F10471F0D7011396FC9381
:10160000EE93129776CF22968C0F9D1FF90191834E
:101610008083F301EFCFF0937B01E0937A0169CFF0
:101620004816590608F42C017D01D3019ACFCB014D
:101630000E9447097C01009749F0AE01B8010E9461
:10164000290BC8010E94E309870153CF10E000E095
:1016500050CFFB01DC0102C001900D92415050407F
:10166000D8F70895FB01DC0101900D920020E1F70D
:061670000895F894FFCF7D
:101676000100320000007C018000000000003B04F5
:10168600CE01FC01FB0166203D200048656C6C6FB5
:1016960020576F726C642100507265737320537407
:1016A60061727400662072616E6765203130207445
:0816B6006F20363020487A0055
:00000001FF
