:020000040000FA
:100000000C945D000C9485000C9485000C94850084
:100010000C9485000C9485000C9485000C9485004C
:100020000C9485000C9485000C9485000C94BF0200
:100030000C9485000C9485000C9485000C9485002C
:100040000C941D020C9485000C948D020C94670294
:100050000C9485000C9485000C9485000C9485000C
:100060000C9485000C94850000000008000201003B
:100070000003040700000000000000000000000072
:10008000250028002B0000000000240027002A0083
:10009000040404040404040402020202020203032E
:1000A0000303030301020408102040800102040836
:1000B0001020010204081020620411241FBECFEF9B
:1000C000D8E0DEBFCDBF11E0A0E0B1E0E2E7F9E0AB
:1000D00002C005900D92A631B107D9F721E0A6E143
:1000E000B1E001C01D92A13CB207E1F710E0CDE5FF
:1000F000D0E004C02197FE010E94B104CC35D107A5
:10010000C9F70E942A030C94B7040C940000E9EA92
:10011000F0E02491E5E9F0E08491882399F090E003
:10012000880F991FFC01EA57FF4FA591B491FC017C
:10013000E458FF4F859194918FB7F894EC91E22B9E
:10014000EC938FBF0895EDE6F0E02491E9EAF0E04A
:100150009491E5E9F0E0E491EE23C9F0222339F02F
:10016000233001F1A8F4213019F1223029F1F0E017
:10017000EE0FFF1FE458FF4FA591B4912FB7F894ED
:10018000EC91811126C090959E239C932FBF0895DA
:100190002730A9F02830C9F0243049F72091800099
:1001A0002F7D03C0209180002F7720938000DFCF28
:1001B00024B52F7724BDDBCF24B52F7DFBCF209135
:1001C000B0002F772093B000D2CF2091B0002F7DC8
:1001D000F9CF9E2BDACF3FB7F8948091BD01909173
:1001E000BE01A091BF01B091C00126B5A89B05C07A
:1001F0002F3F19F00196A11DB11D3FBFBA2FA92FA6
:10020000982F8827BC01CD01620F711D811D911DA2
:1002100042E0660F771F881F991F4A95D1F708950E
:10022000AF92BF92CF92DF92EF92FF920F931F9304
:10023000CF93DF936C017B018B01040F151FEB0142
:100240005E01AE18BF08C017D10759F06991D601F9
:10025000ED91FC910190F081E02DC6010995892B6B
:1002600079F7C501DF91CF911F910F91FF90EF902A
:10027000DF90CF90BF90AF900895FC01538D448DD7
:10028000252F30E0842F90E0821B930B541710F041
:10029000CF96089501970895FC01918D828D98174E
:1002A00061F0A28DAE0FBF2FB11D5D968C91928D26
:1002B0009F5F9F73928F90E008958FEF9FEF089557
:1002C000FC01918D828D981731F0828DE80FF11D20
:1002D000858D90E008958FEF9FEF0895FC01918D3B
:1002E000228D892F90E0805C9F4F821B91098F7334
:1002F000992708958AE191E00E946E0121E0892BFF
:1003000009F420E0822F089580E090E0892B29F005
:100310000E947A0181110C9400000895FC01A48DC3
:10032000A80FB92FB11DA35ABF4F2C91848D90E017
:1003300001968F739927848FA689B7892C93A089FA
:10034000B1898C91837080648C93938D848D981384
:1003500006C00288F389E02D80818F7D8083089517
:10036000EF92FF920F931F93CF93DF93EC0181E005
:10037000888F9B8D8C8D98131AC0E889F9898081AC
:1003800085FF15C09FB7F894EE89FF896083E889DF
:10039000F98980818370806480839FBF81E090E0D1
:1003A000DF91CF911F910F91FF90EF900895F62E5E
:1003B0000B8D10E00F5F1F4F0F731127E02E8C8DF8
:1003C0008E110CC00FB607FCFACFE889F98980813D
:1003D00085FFF5CFCE010E948E01F1CFEB8DEC0FA2
:1003E000FD2FF11DE35AFF4FF0829FB7F8940B8F5A
:1003F000EA89FB8980818062CFCFCF93DF93EC01C4
:10040000888D8823B9F0AA89BB89E889F9898C91FC
:1004100085FD03C0808186FD0DC00FB607FCF7CFB8
:100420008C9185FFF2CF808185FFEDCFCE010E94B8
:100430008E01E9CFDF91CF9108951F920F920FB6F1
:100440000F9211242F933F938F939F93AF93BF935A
:100450008091B9019091BA01A091BB01B091BC010A
:100460003091B80123E0230F2D3758F50196A11DD7
:10047000B11D2093B8018093B9019093BA01A09364
:10048000BB01B093BC018091BD019091BE01A091D0
:10049000BF01B091C0010196A11DB11D8093BD01A6
:1004A0009093BE01A093BF01B093C001BF91AF91E3
:1004B0009F918F913F912F910F900FBE0F901F90A2
:1004C000189526E8230F0296A11DB11DD2CF1F92C9
:1004D0000F920FB60F9211242F933F934F935F9378
:1004E0006F937F938F939F93AF93BF93EF93FF93FC
:1004F0008AE191E00E948E01FF91EF91BF91AF914F
:100500009F918F917F916F915F914F913F912F912B
:100510000F900FBE0F901F9018951F920F920FB65D
:100520000F9211242F938F939F93EF93FF93E0915A
:100530002A01F0912B018081E0913001F09131018D
:1005400082FD1BC09081809133018F5F8F7320915A
:100550003401821741F0E0913301F0E0E65EFE4F96
:10056000958F80933301FF91EF919F918F912F9100
:100570000F900FBE0F901F9018958081F4CF1F929F
:100580000F920FB60F9211240F931F932F933F9347
:100590004F935F936F937F938F939F93AF93BF938B
:1005A000EF93FF930E94EB00009116011091170149
:1005B0002091180130911901601B710B820B930B74
:1005C0006436710581059105B0F080911601909116
:1005D0001701A0911801B09119018D599F4FAF4F8C
:1005E000BF4F8093160190931701A0931801B09309
:1005F00019011092B7010E94EB00009116011091B1
:1006000017012091180130911901601B710B820BA9
:10061000930B6333710581059105C0F48091B70197
:100620008F5F8093B701FF91EF91BF91AF919F9141
:100630008F917F916F915F914F913F912F911F917A
:100640000F910F900FBE0F901F9018958091B701DA
:100650008150E7CFCF93DF93CDB7DEB7A1970FB629
:10066000F894DEBF0FBECDBF789484B5826084BDA0
:1006700084B5816084BD85B5826085BD85B58160A6
:1006800085BD80916E00816080936E001092810024
:1006900080918100826080938100809181008160DF
:1006A00080938100809180008160809380008091A0
:1006B000B10084608093B1008091B000816080932C
:1006C000B00080917A00846080937A0080917A00F3
:1006D000826080937A0080917A00816080937A00B2
:1006E00080917A00806880937A001092C1000E9405
:1006F00087001092800084E0809381001092850032
:100700001092840080E593EC909389008093880098
:1007100081E080936F000E94EB006093160170935C
:1007200017018093180190931901E0912A01F0912B
:100730002B0182E08083E0912601F0912701108255
:10074000E0912801F09129018FEC80831092320111
:10075000E0912E01F0912F0186E08083E0912C0141
:10076000F0912D01808180618083E0912C01F091D6
:100770002D01808188608083E0912C01F0912D0112
:10078000808180688083E0912C01F0912D0180812F
:100790008F7D80838DE6C82E80E0D82E9AE0892E4A
:1007A000912CA12CB12C20E0E22E20E0F22E7090B2
:1007B000B701072D10E00E94870001151105E1F532
:1007C00080E00E94A3002091B70130E050E040E0BB
:1007D00019A28E010F5D1F4FCA01B901A501940135
:1007E0000E948F04605DF80162938F01211531052D
:1007F0004105510589F7309761F001900020E9F734
:100800003197AF01401B510BB8018AE191E00E9482
:10081000100142E050E062E171E08AE191E00E9463
:100820001001E114F10419F20E947A01882309F4FD
:10083000BECF0E940000BBCF0F3F110511F481E035
:10084000C0CFF6018491833019F140F48130B1F0CA
:100850008230C9F00038110594F7B2CF873011F11A
:10086000883041F18430B1F78091800080628093BC
:10087000800010938B0000938A00A5CF84B5806818
:1008800084BD77BCA0CF84B5806284BD78BC9BCF8B
:10089000809180008068809380001093890000938D
:1008A000880091CF8091B00080688093B0007092F2
:1008B000B30089CF8091B00080628093B0007092C5
:1008C000B40081CFEAE1F1E01382128288EE93E076
:1008D000A0E0B0E084839583A683B78384E091E0B1
:1008E0009183808385EC90E09587848784EC90E009
:1008F0009787868780EC90E0918B808B81EC90E0ED
:10090000938B828B82EC90E0958B848B86EC90E0CD
:10091000978B868B118E128E138E148E0895A1E202
:100920001A2EAA1BBB1BFD010DC0AA1FBB1FEE1F69
:10093000FF1FA217B307E407F50720F0A21BB30BB4
:10094000E40BF50B661F771F881F991F1A9469F730
:1009500060957095809590959B01AC01BD01CF018C
:100960000895EE0FFF1F0590F491E02D0994F8947F
:10097000FFCF00000000B00110013D01FD016E013C
:080980004C0160010D0A0000AA
:107E0000112484B714BE81FFF0D085E080938100F7
:107E100082E08093C00088E18093C10086E0809377
:107E2000C20080E18093C4008EE0C9D0259A86E02C
:107E300020E33CEF91E0309385002093840096BBD3
:107E4000B09BFECF1D9AA8958150A9F7CC24DD24C4
:107E500088248394B5E0AB2EA1E19A2EF3E0BF2EE7
:107E6000A2D0813461F49FD0082FAFD0023811F036
:107E7000013811F484E001C083E08DD089C08234E0
:107E800011F484E103C0853419F485E0A6D080C0E4
:107E9000853579F488D0E82EFF2485D0082F10E0AE
:107EA000102F00270E291F29000F111F8ED06801E7
:107EB0006FC0863521F484E090D080E0DECF843638
:107EC00009F040C070D06FD0082F6DD080E0C81688
:107ED00080E7D80618F4F601B7BEE895C0E0D1E017
:107EE00062D089930C17E1F7F0E0CF16F0E7DF06D8
:107EF00018F0F601B7BEE89568D007B600FCFDCFD4
:107F0000A601A0E0B1E02C9130E011968C91119780
:107F100090E0982F8827822B932B1296FA010C0160
:107F200087BEE89511244E5F5F4FF1E0A038BF0790
:107F300051F7F601A7BEE89507B600FCFDCF97BE46
:107F4000E89526C08437B1F42ED02DD0F82E2BD052
:107F50003CD0F601EF2C8F010F5F1F4F84911BD097
:107F6000EA94F801C1F70894C11CD11CFA94CF0C13
:107F7000D11C0EC0853739F428D08EE10CD085E9AC
:107F80000AD08FE07ACF813511F488E018D01DD067
:107F900080E101D065CF982F8091C00085FFFCCF94
:107FA0009093C60008958091C00087FFFCCF809118
:107FB000C00084FD01C0A8958091C6000895E0E648
:107FC000F0E098E1908380830895EDDF803219F02E
:107FD00088E0F5DFFFCF84E1DECF1F93182FE3DFCA
:107FE0001150E9F7F2DF1F91089580E0E8DFEE27F6
:047FF000FF270994CA
:027FFE00040479
:00000001FF
