:100000000C9462000C947F000C947F000C947F0091
:100010000C947F000C947F000C947F000C94EA00F9
:100020000C947F000C947F000C947F000C947F0054
:100030000C947F000C947F000C947F000C947F0044
:100040000C94A0000C947F000C947F000C947F0013
:100050000C947F000C947F000C947F000C947F0024
:100060000C947F000C947F0005A84CCDB2D44EB9FF
:100070003836A9020C50B9918688083CA6AAAA2A4B
:10008000BE000000803F00000000250028002B007B
:1000900000000000240027002A00040404040404D3
:1000A0000404020202020202030303030303010227
:1000B00004081020408001020408102001020408F6
:1000C0001020440211241FBECFEFD8E0DEBFCDBF09
:1000D00025E0A0E0B1E001C01D92AD30B207E1F72C
:1000E00010E0C2E6D0E004C02197FE010E94F704B0
:1000F000C136D107C9F70E9448010C94FD040C9445
:10010000000090E0FC01E255FF4F249186569F4F7E
:10011000FC018491882399F090E0880F991FFC01DD
:10012000E057FF4FA591B491FC01EA57FF4F85912D
:1001300094918FB7F894EC91E22BEC938FBF0895D4
:100140001F920F920FB60F9211242F933F938F930C
:100150009F93AF93BF938091090590910A05A09159
:100160000B05B0910C053091080523E0230F2D37C6
:1001700058F50196A11DB11D20930805809309052E
:1001800090930A05A0930B05B0930C05809104058C
:1001900090910505A0910605B09107050196A11D56
:1001A000B11D8093040590930505A0930605B093B7
:1001B0000705BF91AF919F918F913F912F910F9024
:1001C0000FBE0F901F90189526E8230F0296A11DD1
:1001D000B11DD2CF1F920F920FB60F9211242F9301
:1001E0003F938F939F93EF93FF938091020590919C
:1001F0000305209100053091010582179307F4F55E
:10020000880F991FFC01EE5FFE4F808191819093D2
:1002100089008093880080910205909103050196E2
:100220009093030580930205809100019091010154
:1002300020910005309101058217930724F5880F5E
:10024000991FFC01EE5FFE4F8081918190938B009E
:1002500080938A0080910001909101010196909312
:10026000010180930001FF91EF919F918F913F9148
:100270002F910F900FBE0F901F90189510920305AD
:1002800010920205D1CF1092010110920001EBCF24
:10029000789484B5826084BD84B5816084BD85B561
:1002A000826085BD85B5816085BD80916E0081606D
:1002B00080936E0010928100809181008260809313
:1002C0008100809181008160809381008091800015
:1002D0008160809380008091B10084608093B10040
:1002E0008091B00081608093B00080917A0084603A
:1002F00080937A0080917A00826080937A00809166
:100300007A00816080937A0080917A00806880937F
:100310007A001092C10089E00E9481008AE00E9468
:1003200081000091000510910105C090FE04D0905D
:10033000FF04D7FE03C08FEFC81AD80AD594C7941C
:1003400032E0232E31E0332ED0E0C0E02801012E30
:10035000000C660877080D2C000CEE08FF080C173F
:100360001D07DCF1BE010D2E000C880B990B0E94BD
:100370006E032BED3FE049EC50E40E94FA034B0181
:100380005C01C301B2010E946E039B01AC01C50177
:10039000B4010E94C4020E94670420E030E040E8FB
:1003A0005FE30E9458024B015C01C701B6010E9445
:1003B0006E039B01AC01C501B4010E94FA0320E069
:1003C00030E040E05FE30E9458020E943603F101F2
:1003D000619371931F012196C2CF17FF02C00FEFE7
:1003E0001FEF0F5F1F4F1093030500930205F89452
:1003F000109285001092840082EA8093800089E147
:10040000809381008091FE049091FF049093870077
:1004100080938600E0910205F0910305EE0FFF1F27
:10042000EE5FFE4F808191819093890080938800D8
:10043000E0910001F0910101EE0FFF1FEE5FFE4F12
:100440008081918190938B0080938A001092B000FC
:100450001092B1008091B00082608093B0008091D2
:10046000B10082608093B1008EE48093B3008091EC
:1004700070008260809370007894C0E0D0E0209794
:10048000F1F30E940000FBCF8FE296E09093FF040F
:100490008093FE048EE59CE0909301058093000517
:1004A00080E396E0909301018093000108955058F5
:1004B000BB27AA270E946F020C94C0030E94B203BC
:1004C00038F00E94B90320F039F49F3F19F426F464
:1004D0000C94AF030EF4E095E7FB0C94A903E92F0D
:1004E0000E94D10358F3BA17620773078407950770
:1004F00020F079F4A6F50C94F3030EF4E0950B2E9E
:10050000BA2FA02D0B01B90190010C01CA01A00165
:100510001124FF27591B99F0593F50F4503E68F1C0
:100520001A16F040A22F232F342F4427585FF3CF01
:10053000469537952795A795F0405395C9F77EF4D2
:100540001F16BA0B620B730B840BBAF09150A1F01B
:10055000FF0FBB1F661F771F881FC2F70EC0BA0FA1
:10056000621F731F841F48F4879577956795B79529
:10057000F7959E3F08F0B0CF9395880F08F0992724
:10058000EE0F9795879508950E94D8020C94C003AA
:100590000E94B90358F00E94B20340F029F45F3F73
:1005A00029F00C94A90351110C94F4030C94AF039B
:1005B0000E94D10368F39923B1F3552391F3951B5E
:1005C000550BBB27AA2762177307840738F09F5F74
:1005D0005F4F220F331F441FAA1FA9F335D00E2EE1
:1005E0003AF0E0E832D091505040E695001CCAF74E
:1005F0002BD0FE2F29D0660F771F881FBB1F261711
:1006000037074807AB07B0E809F0BB0B802DBF01E7
:10061000FF2793585F4F3AF09E3F510578F00C94B6
:10062000A9030C94F4035F3FE4F3983ED4F386955A
:1006300077956795B795F7959F5FC9F7880F911DD7
:100640009695879597F90895E1E0660F771F881FC3
:10065000BB1F621773078407BA0720F0621B730B76
:10066000840BBA0BEE1F88F7E09508950E943D03B6
:100670006894B1110C94F40308950E94D90388F092
:100680009F5798F0B92F9927B751B0F0E1F0660F56
:10069000771F881F991F1AF0BA95C9F714C0B13097
:1006A00091F00E94F303B1E008950C94F303672FD7
:1006B000782F8827B85F39F0B93FCCF386957795C6
:1006C0006795B395D9F73EF49095809570956195AF
:1006D0007F4F8F4F9F4F0895E89409C097FB3EF4DA
:1006E00090958095709561957F4F8F4F9F4F99237F
:1006F000A9F0F92F96E9BB279395F69587957795FD
:100700006795B795F111F8CFFAF4BB0F11F460FFBC
:100710001BC06F5F7F4F8F4F9F4F16C0882311F014
:1007200096E911C0772321F09EE8872F762F05C028
:10073000662371F096E8862F70E060E02AF09A95C3
:10074000660F771F881FDAF7880F9695879597F9B8
:10075000089597F99F6780E870E060E008959FEF43
:1007600080EC089500240A94161617061806090648
:10077000089500240A941216130614060506089517
:10078000092E0394000C11F4882352F0BB0F40F49F
:10079000BF2B11F460FF04C06F5F7F4F8F4F9F4FDF
:1007A000089557FD9058440F551F59F05F3F71F061
:1007B0004795880F97FB991F61F09F3F79F08795C8
:1007C0000895121613061406551FF2CF4695F1DF51
:1007D00008C0161617061806991FF1CF86957105E1
:1007E000610508940895E894BB2766277727CB0115
:1007F00097F908950E940D040C94C0030E94B2035F
:1008000038F00E94B90320F0952311F00C94A9034D
:100810000C94AF0311240C94F4030E94D10370F3E1
:10082000959FC1F3950F50E0551F629FF001729F95
:10083000BB27F00DB11D639FAA27F00DB11DAA1FA4
:10084000649F6627B00DA11D661F829F2227B00DF1
:10085000A11D621F739FB00DA11D621F839FA00D7C
:10086000611D221F749F3327A00D611D231F849FCC
:10087000600D211D822F762F6A2F11249F57504023
:100880009AF0F1F088234AF0EE0FFF1FBB1F661F9E
:10089000771F881F91505040A9F79E3F510580F067
:1008A0000C94A9030C94F4035F3FE4F3983ED4F353
:1008B000869577956795B795F795E7959F5FC1F70B
:1008C000FE2B880F911D9695879597F908959F9314
:1008D0000E9471040F9007FCEE5F0C949A040C9434
:1008E000AF030E94D903D8F3E894E0E0BB279F57F9
:1008F000F0F02AED3FE049EC06C0EE0FBB0F661F9B
:10090000771F881F28F0B23A62077307840728F020
:10091000B25A620B730B840BE3959A9572F7803889
:1009200030F49A95BB0F661F771F881FD2F7904847
:100930000C94B004EF93E0FF07C0A2EA2AED3FE079
:1009400049EC5FEB0E946F020E94C0030F9003947A
:1009500001FC9058E8E6F0E00C94BC049F3F31F0B5
:10096000915020F4879577956795B795880F911DDD
:100970009695879597F908959F938F937F936F939B
:10098000FF93EF939B01AC010E94FA03EF91FF915B
:100990000E94D0042F913F914F915F910C94FA03E4
:1009A000DF93CF931F930F93FF92EF92DF927B0120
:1009B0008C01689406C0DA2EEF010E940D04FE013E
:1009C000E894A5912591359145915591A6F3EF01B4
:1009D0000E946F02FE019701A801DA9469F7DF9087
:1009E000EF90FF900F911F91CF91DF910895EE0F3F
:0E09F000FF1F0590F491E02D0994F894FFCFBD
:00000001FF
