:020000040000FA
:100000000C946C000C9494000C9494000C94940048
:100010000C9494000C9494000C9494000C94F202B0
:100020000C9494000C9494000C9494000C94940000
:100030000C9494000C9494000C9494000C949400F0
:100040000C94A8020C9494000C9494000C949400CA
:100050000C9494000C9494000C9494000C949400D0
:100060000C9494000C94940005A84CCDB2D44EB9D5
:100070003836A9020C50B9918688083CA6AAAA2A4B
:10008000BE000000803F00000008000201000003E5
:100090000407000000000000000000000000250030
:1000A00028002B0000000000240027002A00040480
:1000B0000404040404040202020202020303030310
:1000C00003030102040810204080010204081020EC
:1000D000010204081020DB0411241FBECFEFD8E07A
:1000E000DEBFCDBF11E0A0E0B1E0E0EFFFE002C075
:1000F00005900D92A233B107D9F725E0A2E3B1E054
:1001000001C01D92A135B207E1F710E0CCE6D0E0C6
:1001100004C02197FE010E94F007CB36D107C9F732
:100120000E943D030C94F6070C94000090E0FC0143
:10013000EE53FF4F249182559F4FFC0184918823F9
:1001400099F090E0880F991FFC01EC55FF4FA591A5
:10015000B491FC01E656FF4F859194918FB7F894C6
:10016000EC91E22BEC938FBF089590E0FC01EA57ED
:10017000FF4F2491FC01EE53FF4F3491FC01E255F7
:10018000FF4FE491EE23C9F0222339F0233001F12F
:10019000A8F4213019F1223029F1F0E0EE0FFF1F11
:1001A000E656FF4FA591B4918FB7F894EC91611189
:1001B00026C030953E233C938FBF08952730A9F089
:1001C0002830C9F0243049F7809180008F7D03C02A
:1001D000809180008F7780938000DFCF84B58F7708
:1001E00084BDDBCF84B58F7DFBCF8091B0008F774E
:1001F0008093B000D2CF8091B0008F7DF9CF3E2B9D
:10020000DACF3FB7F8948091350590913605A091EB
:100210003705B091380526B5A89B05C02F3F19F0CA
:100220000196A11DB11D3FBFBA2FA92F982F882776
:10023000BC01CD01620F711D811D911D42E0660F51
:10024000771F881F991F4A95D1F70895AF92BF92E3
:10025000CF92DF92EF92FF920F931F93CF93DF9392
:100260006C017B018B01040F151FEB015E01AE18C1
:10027000BF08C017D10759F06991D601ED91FC91E3
:100280000190F081E02DC6010995892B79F7C50110
:10029000DF91CF911F910F91FF90EF90DF90CF9062
:1002A000BF90AF900895089590E080E00895FC011C
:1002B00001900020E9F73197AF01481B590BBC01B1
:1002C00089E395E00C942601CF93DF93EC0160E085
:1002D0008E810E94B50061E08E810E94B50060E0D1
:1002E0008E810E94B5008BE891E00197F1F7DF91D4
:1002F000CF910895CF92DF92EF92FF920F931F93C9
:10030000CF93DF936C017C0187E0E80EF11CD0E015
:10031000C0E0062F10E0B8010C2E02C0759567955D
:100320000A94E2F76170F70181917F010E94B500A4
:100330002196C430D10579F7C601DF91CF911F9185
:100340000F91FF90EF90DF90CF900C946401CF92CB
:10035000DF92EF92FF920F931F93CF93DF93EC0105
:10036000F62E642F8C810E94B5008D818F3F19F08D
:1003700060E00E94B5000F2D10E08F8584FF25C03E
:100380006E0187E0C80ED11CF12CE12CB8010E2CB7
:1003900002C0759567950A94E2F76170F601819144
:1003A0006F010E94B500FFEFEF1AFF0A88E0E81620
:1003B000F10461F7CE01DF91CF911F910F91FF9072
:1003C000EF90DF90CF900C946401B80184E07595B4
:1003D00067958A95E1F7CE010E947A016F2DCE01D3
:1003E000DF91CF911F910F91FF90EF90DF90CF9011
:1003F0000C947A0140E0682F89E395E00C94A70102
:10040000CF93DF93823029F49091480598609093C0
:10041000480580934C0510924D0580E480934E056D
:1004200080E180934F0580E58093500580913D05E4
:100430000E94960080913E058F3F11F00E94960029
:1004400080913F050E949600C9E3D5E09E012953A3
:1004500035408091480584FD0AC084E090E02196F3
:10046000281739073CF48E810E949600EFCF88E070
:1004700090E0F5CF8BE39DE00197F1F760E080918C
:100480003D050E94B50060E080913F050E94B500E7
:1004900080913E058F3F19F060E00E94B500809189
:1004A000480584FD39C063E089E395E00E947A0144
:1004B000CBE4D6E4CE010197F1F763E089E395E060
:1004C0000E947A012197F1F763E089E395E00E94A9
:1004D0007A0183E592E00197F1F762E089E395E024
:1004E0000E947A018091480580620E94FA0184E0AE
:1004F000809349058CE00E94FA0181E00E94FA0194
:100500008BE39FE10197F1F782E080934A0586E053
:10051000DF91CF910C94FA0180620E94FA018BE482
:1005200096E40197F1F78091480580620E94FA01F4
:1005300083E592E00197F1F78091480580620E947F
:10054000FA01D0CF41E00E94A70181E090E0089538
:100550001F920F920FB60F9211242F933F938F93F8
:100560009F93AF93BF938091310590913205A091F5
:100570003305B09134053091300523E0230F2D373A
:1005800058F50196A11DB11D2093300580933105CA
:1005900090933205A0933305B093340580913505CF
:1005A00090913605A0913705B09138050196A11DAF
:1005B000B11D8093350590933605A0933705B09310
:1005C0003805BF91AF919F918F913F912F910F90DF
:1005D0000FBE0F901F90189526E8230F0296A11DBD
:1005E000B11DD2CF1F920F920FB60F9211242F93ED
:1005F0003F938F939F93EF93FF938091320190915C
:1006000033018E352CE092079CF5880F991FFC0171
:10061000EC5CFE4F808191819093890080938800EB
:10062000E0913201F0913301EE0FFF1FEC5CFE4FC1
:1006300081E090E020813181232B11F090E080E077
:1006400090938B0080938A008091320190913301C6
:1006500001969093330180933201FF91EF919F9126
:100660008F913F912F910F900FBE0F901F90189573
:100670001092330110923201F0CFCF93DF93CDB7B8
:10068000DEB7A1970FB6F894DEBF0FBECDBF78944A
:1006900084B5826084BD84B5816084BD85B5826087
:1006A00085BD85B5816085BD80916E008160809338
:1006B0006E001092810080918100826080938100A1
:1006C00080918100816080938100809180008160B1
:1006D000809380008091B10084608093B10080910C
:1006E000B00081608093B00080917A008460809334
:1006F0007A0080917A00826080937A0080917A00FB
:10070000816080937A0080917A00806880937A007B
:100710001092C10089E00E9496008AE00E94960033
:1007200082E00E9400028CE091E00E9457010E944A
:1007300001014B015C0158EBC52E5BE0D52EE12C8D
:10074000F12C0E940101681979098A099B09683E08
:10075000734081059105A8F321E0C21AD108E10890
:10076000F10888EE880E83E0981EA11CB11CC1140C
:10077000D104E104F10429F781E00E94FA018BE33E
:100780009FE10197F1F744E3E42E41E0F42E10E0FD
:1007900000E0B801012E000C880B990B0E94600646
:1007A0002BED3FE049EC50E40E94EC0620E030EEF7
:1007B00045E455E40E94B6050E94590720E030E068
:1007C00040E85FE30E944A0520E030EC45E454E451
:1007D0000E94EC0620E030E040E05FE30E944A0522
:1007E0000E942806F701619371937F010F5F1F4FED
:1007F0000F35FCE01F0769F6F894109285001092FF
:10080000840082EA8093800089E1809381008FE2F6
:1008100096E09093870080938600E0913201F091FA
:100820003301EE0FFF1FEC5CFE4F808191819093AE
:10083000890080938800E0913201F0913301EE0F3E
:10084000FF1FEC5CFE4F81E090E020813181232B83
:1008500011F090E080E090938B0080938A001092DA
:10086000B0001092B1008091B00082608093B0001F
:100870008091B10082608093B1008EE48093B300D8
:100880008091700082608093700078948AE0882E56
:10089000912CA12CB12C90E0292E90E0392E20E44F
:1008A00020937C0080917A00806480937A0080910C
:1008B0007A0086FDFCCFA0917800B091790022E308
:1008C00030E00E94E9072FEF33E040E050E00E9463
:1008D000F90429013A017A0169018AE0C80ED11CA4
:1008E000E11CF11C89E191E00E945701F7FE4BC029
:1008F00041E06DE289E395E00E94A70126EF3FEF1A
:100900004FEF5FEF241935094609570919A28E01E7
:100910000F5D1F4FCA01B901A50194010E9418057E
:10092000605DF80162938F01211531054105510584
:1009300089F70115110561F001900020E9F7319761
:10094000AF01401B510BB80189E395E00E942601DD
:100950008EE291E00E945701E0914C05E23048F5AB
:10096000E150F0E0E75CFA4F848980680E94FA0168
:100970008EE191E00E9457012114310409F48FCFD8
:100980000E9400008CCFA701960119A28E010F5D75
:100990001F4FCA01B901A50194010E941805605DAD
:1009A000F80162938F01211531054105510589F741
:1009B000C0CFE1E0D6CFE9E3F5E01382128284E014
:1009C00091E0918380838CE084838FEF85838BE03B
:1009D000868385E0878384E0808783E0818782E067
:1009E00082871386148615861686178681E00C94F6
:1009F0000002052E97FB1EF400940E94100557FD7F
:100A000007D00E94180507FC03D04EF40C94100583
:100A100050954095309521953F4F4F4F5F4F08952A
:100A200090958095709561957F4F8F4F9F4F08955A
:100A3000A1E21A2EAA1BBB1BFD010DC0AA1FBB1FE2
:100A4000EE1FFF1FA217B307E407F50720F0A21B54
:100A5000B30BE40BF50B661F771F881F991F1A94C1
:100A600069F760957095809590959B01AC01BD01EB
:100A7000CF010895A29FB001B39FC001A39F700D45
:100A8000811D1124911DB29F700D811D1124911D96
:100A900008955058BB27AA270E9461050C94B206FE
:100AA0000E94A40638F00E94AB0620F039F49F3F64
:100AB00019F426F40C94A1060EF4E095E7FB0C94CF
:100AC0009B06E92F0E94C30658F3BA176207730703
:100AD0008407950720F079F4A6F50C94E5060EF44A
:100AE000E0950B2EBA2FA02D0B01B90190010C013E
:100AF000CA01A0011124FF27591B99F0593F50F456
:100B0000503E68F11A16F040A22F232F342F4427AD
:100B1000585FF3CF469537952795A795F0405395A5
:100B2000C9F77EF41F16BA0B620B730B840BBAF075
:100B30009150A1F0FF0FBB1F661F771F881FC2F7E0
:100B40000EC0BA0F621F731F841F48F487957795F4
:100B50006795B795F7959E3F08F0B0CF9395880FAE
:100B600008F09927EE0F9795879508950E94CA057A
:100B70000C94B2060E94AB0658F00E94A40640F006
:100B800029F45F3F29F00C949B0651110C94E60662
:100B90000C94A1060E94C30668F39923B1F3552370
:100BA00091F3951B550BBB27AA2762177307840780
:100BB00038F09F5F5F4F220F331F441FAA1FA9F316
:100BC00035D00E2E3AF0E0E832D091505040E69504
:100BD000001CCAF72BD0FE2F29D0660F771F881F65
:100BE000BB1F261737074807AB07B0E809F0BB0B58
:100BF000802DBF01FF2793585F4F3AF09E3F51056C
:100C000078F00C949B060C94E6065F3FE4F3983E64
:100C1000D4F3869577956795B795F7959F5FC9F754
:100C2000880F911D9695879597F90895E1E0660FD5
:100C3000771F881FBB1F621773078407BA0720F04E
:100C4000621B730B840BBA0BEE1F88F7E0950895B7
:100C50000E942F066894B1110C94E60608950E9434
:100C6000CB0688F09F5798F0B92F9927B751B0F06D
:100C7000E1F0660F771F881F991F1AF0BA95C9F720
:100C800014C0B13091F00E94E506B1E008950C94D3
:100C9000E506672F782F8827B85F39F0B93FCCF386
:100CA000869577956795B395D9F73EF4909580959D
:100CB000709561957F4F8F4F9F4F0895E89409C0BD
:100CC00097FB3EF490958095709561957F4F8F4F7F
:100CD0009F4F9923A9F0F92F96E9BB279395F69595
:100CE000879577956795B795F111F8CFFAF4BB0F13
:100CF00011F460FF1BC06F5F7F4F8F4F9F4F16C077
:100D0000882311F096E911C0772321F09EE8872F00
:100D1000762F05C0662371F096E8862F70E060E0BC
:100D20002AF09A95660F771F881FDAF7880F969535
:100D3000879597F9089597F99F6780E870E060E0DC
:100D400008959FEF80EC089500240A941616170664
:100D500018060906089500240A94121613061406AC
:100D600005060895092E0394000C11F4882352F00F
:100D7000BB0F40F4BF2B11F460FF04C06F5F7F4FC7
:100D80008F4F9F4F089557FD9058440F551F59F0AE
:100D90005F3F71F04795880F97FB991F61F09F3F68
:100DA00079F087950895121613061406551FF2CF91
:100DB0004695F1DF08C0161617061806991FF1CFE1
:100DC00086957105610508940895E894BB27662708
:100DD0007727CB0197F908950E94FF060C94B2067D
:100DE0000E94A40638F00E94AB0620F0952311F073
:100DF0000C949B060C94A10611240C94E6060E9408
:100E0000C30670F3959FC1F3950F50E0551F629F85
:100E1000F001729FBB27F00DB11D639FAA27F00D53
:100E2000B11DAA1F649F6627B00DA11D661F829F7A
:100E30002227B00DA11D621F739FB00DA11D621F5F
:100E4000839FA00D611D221F749F3327A00D611D7C
:100E5000231F849F600D211D822F762F6A2F11245E
:100E60009F5750409AF0F1F088234AF0EE0FFF1F91
:100E7000BB1F661F771F881F91505040A9F79E3FE8
:100E8000510580F00C949B060C94E6065F3FE4F35A
:100E9000983ED4F3869577956795B795F795E7953E
:100EA0009F5FC1F7FE2B880F911D9695879597F947
:100EB00008959F930E9463070F9007FCEE5F0C94C8
:100EC0008C070C94A1060E94CB06D8F3E894E0E0CE
:100ED000BB279F57F0F02AED3FE049EC06C0EE0F2C
:100EE000BB0F661F771F881F28F0B23A620773078F
:100EF000840728F0B25A620B730B840BE3959A9522
:100F000072F7803830F49A95BB0F661F771F881FE1
:100F1000D2F790480C94A207EF93E0FF07C0A2EA33
:100F20002AED3FE049EC5FEB0E9461050E94B206AA
:100F30000F90039401FC9058E8E6F0E00C94AE07A3
:100F40009F3F31F0915020F4879577956795B7953D
:100F5000880F911D9695879597F908959F938F9384
:100F60007F936F93FF93EF939B01AC010E94EC067C
:100F7000EF91FF910E94C2072F913F914F915F9196
:100F80000C94EC06DF93CF931F930F93FF92EF9295
:100F9000DF927B018C01689406C0DA2EEF010E947B
:100FA000FF06FE01E894A591259135914591559153
:100FB000A6F3EF010E946105FE019701A801DA94F2
:100FC00069F7DF90EF90FF900F911F91CF91DF9124
:100FD00008950E943A05B7FF0895821B930B089568
:100FE000EE0FFF1F0590F491E02D0994F894FFCFC8
:100FF00000000000A20226015401530148656C6CF8
:101000006F20576F726C64210066203D20006620BF
:1010100072616E676520313020746F203630204851
:021020007A0054
:107E0000112484B714BE81FFF0D085E080938100F7
:107E100082E08093C00088E18093C10086E0809377
:107E2000C20080E18093C4008EE0C9D0259A86E02C
:107E300020E33CEF91E0309385002093840096BBD3
:107E4000B09BFECF1D9AA8958150A9F7CC24DD24C4
:107E500088248394B5E0AB2EA1E19A2EF3E0BF2EE7
:107E6000A2D0813461F49FD0082FAFD0023811F036
:107E7000013811F484E001C083E08DD089C08234E0
:107E800011F484E103C0853419F485E0A6D080C0E4
:107E9000853579F488D0E82EFF2485D0082F10E0AE
:107EA000102F00270E291F29000F111F8ED06801E7
:107EB0006FC0863521F484E090D080E0DECF843638
:107EC00009F040C070D06FD0082F6DD080E0C81688
:107ED00080E7D80618F4F601B7BEE895C0E0D1E017
:107EE00062D089930C17E1F7F0E0CF16F0E7DF06D8
:107EF00018F0F601B7BEE89568D007B600FCFDCFD4
:107F0000A601A0E0B1E02C9130E011968C91119780
:107F100090E0982F8827822B932B1296FA010C0160
:107F200087BEE89511244E5F5F4FF1E0A038BF0790
:107F300051F7F601A7BEE89507B600FCFDCF97BE46
:107F4000E89526C08437B1F42ED02DD0F82E2BD052
:107F50003CD0F601EF2C8F010F5F1F4F84911BD097
:107F6000EA94F801C1F70894C11CD11CFA94CF0C13
:107F7000D11C0EC0853739F428D08EE10CD085E9AC
:107F80000AD08FE07ACF813511F488E018D01DD067
:107F900080E101D065CF982F8091C00085FFFCCF94
:107FA0009093C60008958091C00087FFFCCF809118
:107FB000C00084FD01C0A8958091C6000895E0E648
:107FC000F0E098E1908380830895EDDF803219F02E
:107FD00088E0F5DFFFCF84E1DECF1F93182FE3DFCA
:107FE0001150E9F7F2DF1F91089580E0E8DFEE27F6
:047FF000FF270994CA
:027FFE00040479
:00000001FF
