:100A76002068656C6C6F20776F726C64212000486B
:100A86004F4D45204155544F4D4154494F4E00203E
:100A960020202053595354454D2020202000456ED8
:100AA6007465722050617373776F72643A0057658C
:100AB6006C636F6D652C2041686D656400506173D1
:100AC60073776F7264204163636570740057726F49
:100AD6006E6720506173736B65790041636365735C
:100AE600732044656E6965640053797374656D207F
:100AF60052656164792E2E2E002046616E204F4E7F
:100B060020002046616E204F464620002054562085
:100B16004F4E2000205456204F4646200047617312
:100B26002044657465637465640053797374656DF8
:0E0B360020696E20486F6C6400000000000013
:090D7500041B3432303101190075
:10080000E4F522752401F52578267C00FD7BFF7A2E
:100810000B793FFE7F05120A37120D327590F0C238
:10082000A4D2B27BFF7A0A7976120CF8120CD47F2C
:1008300001120D497BFF7A0A7985120CF87FC012EC
:100840000D497BFF7A0A7995120CF87FB87E0B125E
:100850000CD87F01120D497BFF7A0A79A4120CF89B
:100860007FC0120D49E522C39404500E120B44744C
:10087000262522F8A607052280EBE4F52AF5227446
:10088000262522F8E6FF741B2522F8E66F6003E4B4
:10089000F5240522E522B404E6E524640170267FF0
:1008A00001120D497BFF7A0A79B4120CF87FC0124D
:1008B0000D497BFF7A0A79C3120CF8120CD47F0120
:1008C000120D498035C2A47F01120D497BFF7A0ABF
:1008D00079D3120CF87FC0120D497BFF7A0A79E1B7
:1008E000120CF8120CD47F01120D49D2A40519E59F
:1008F000196403600302085780FE120D697BFF7ABA
:100900000A79EF120D1B7F327E00120CD8D288D2EA
:10091000A8D2AF3098FD859925852523C298E52377
:10092000B4310AD2A07BFF7A0A79FF802BE523B489
:10093000320AC2A07BFF7A0B7908801CE523B4330E
:100940000AD2A17BFF7A0B7912800DE523B4341211
:10095000C2A17BFF7A0B791A120D1B7F327E001227
:070960000CD8E4F52380AC84
:040CD4007FD07E0748
:100CD800E4FDFCC3ED9FEC9E5015E4FBFA0BBB0052
:0F0CE800010ABA04F8BBFBF50DBD00010C80E456
:010CF70022DA
:080D7F008F993099FDC2992201
:100D1B00120A5DFF600C120D7F740129F9E43AFA97
:070D2B0080EE7F0D020D7F39
:0C0D6900758920759850758DFDD28E2282
:100D49008F80C2A6D2A77F017E00120CD8C2A7222B
:100D59008F80D2A6D2A77F017E00120CD8C2A7220B
:100D3200E4F5807F38120D497F0E120D497F0112B2
:070D42000D497F80020D49FD
:100CF8008B2B8A2C892DAB2BAA2CA92D120A5DFFD0
:100D08006010120D597401252DF52DE4352CF52CA4
:030D180080E42252
:100B44007590F08590085308F0E508B4F0F27F142E
:100B54007E00120CD8E59054F0F50864F060EF7F45
:100B640001120CD8E59054F0F50864F060E075903B
:100B7400FEE59054F0F50864F06005E4F51A80345D
:100B84007590FDE59054F0F50864F06005751A0160
:100B940080227590FBE59054F0F50864F0600575CB
:100BA4001A0280107590F7E59054F0F50864F0602F
:100BB400BD751A03E508B4E00AE51A25E025E0242A
:100BC400098026E508B4D00AE51A25E025E0240AC0
:100BD4008017E508B4B00AE51A25E025E0240B8067
:0D0BE40008E51A25E025E0240CF8E6FF22C4
:03000300020C7D6F
:100C7D00C0E0C083C082C0D075D000C001C002C02A
:100C8D0003C004C005C006C00720B220D2A47F0156
:100C9D00120D497BFF7A0B7923120CF87FC0120DD0
:100CAD00497BFF7A0B7930120CF880FEC2AFC2A8D7
:100CBD00D007D006D005D004D003D002D001D0D0BB
:070CCD00D082D083D0E03299
:03000000020BF1FF
:0C0BF100787FE4F6D8FD75812D020C38E9
:10096700E709F608DFFA8046E709F208DFFA803E72
:1009770088828C83E709F0A3DFFA8032E309F6085F
:10098700DFFA8078E309F208DFFA807088828C83C7
:10099700E309F0A3DFFA806489828A83E0A3F6087B
:1009A700DFFA805889828A83E0A3F208DFFA804C55
:1009B70080D280FA80C680D4806980F2803380102C
:1009C70080A680EA809A80A880DA80E280CA803395
:1009D70089828A83ECFAE493A3C8C582C8CCC5830D
:1009E700CCF0A3C8C582C8CCC583CCDFE9DEE780DD
:1009F7000D89828A83E493A3F608DFF9ECFAA9F05C
:100A0700EDFB2289828A83ECFAE0A3C8C582C8CCB1
:100A1700C583CCF0A3C8C582C8CCC583CCDFEADECA
:100A2700E880DB89828A83E493A3F208DFF980CC2C
:100A370088F0EF60010E4E60C388F0ED2402B40425
:100A47000050B9F582EB2402B4040050AF232345CC
:060A570082239009B77331
:100A5D00BB010689828A83E0225002E722BBFE0297
:090A6D00E32289828A83E49322CA
:100BFD00020800E493A3F8E493A34003F68001F206
:100C0D0008DFF48029E493A3F85407240CC8C333F8
:100C1D00C4540F4420C8834004F456800146F6DFC7
:100C2D00E4800B0102040810204080900D75E47ED5
:100C3D00019360BCA3FF543F30E509541FFEE493BC
:100C4D00A360010ECF54C025E060A840B8E493A383
:100C5D00FAE493A3F8E493A3C8C582C8CAC583CAAE
:100C6D00F0A3C8C582C8CAC583CADFE9DEE780BE66
:010D7E000074
:00000001FF
