:100A78002068656C6C6F20776F726C642120004869
:100A88004F4D45204155544F4D4154494F4E00203C
:100A980020202053595354454D2020202000456ED6
:100AA8007465722050617373776F72643A0057658A
:100AB8006C636F6D652C2041686D656400506173CF
:100AC80073776F7264204163636570740057726F47
:100AD8006E6720506173736B65790041636365735A
:100AE800732044656E6965640053797374656D207D
:100AF80052656164792E2E2E002046616E204F4E7D
:100B080020002046616E204F464620002054562083
:100B18004F4E2000205456204F464620004669720A
:100B28006520616C61726D206973204F4E004576B7
:100B3800616375617465204E4F57210047617320CA
:100B480044657465637465640053797374656D20D6
:0D0B5800696E20486F6C6400000000000012
:100D5E00041B3432303101190010092E3734313072
:0B0D6E003835323D3936332B2D2A2F4B
:10080000E4F522752401F52578267C00FD7BFF7A2E
:100810000B7960FE7F05120A39120D917590F0C2B6
:10082000A4D2B27BFF7A0A7978120D1B120CF77FE3
:1008300001120DA87BFF7A0A7987120D1B7FC01267
:100840000DA87BFF7A0A7997120D1B7FB87E0B12D9
:100850000CFB7F01120DA87BFF7A0A79A6120D1BF3
:100860007FC0120DA8E522C39404500E120B6574CC
:10087000262522F8A607052280EBE4F52AF522E5D5
:1008800022C39404501574262522F8E6FF741B2514
:1008900022F8E66F60E9E4F52480E4E52464017061
:1008A000267F01120DA87BFF7A0A79B6120D1B7FF5
:1008B000C0120DA87BFF7A0A79C5120D1B120CF726
:1008C0007F01120DA88035C2A47F01120DA87BFF05
:1008D0007A0A79D5120D1B7FC0120DA87BFF7A0A08
:1008E00079E3120D1B120CF77F01120DA8D2A4059B
:1008F00019E5196403600302085780FE120DC87BD6
:10090000FF7A0A79F1120D7A7F327E00120CFBD247
:1009100088D2A8D2AF3098FD859925852523C29825
:10092000E523B4310AD2A07BFF7A0B7901802BE555
:1009300023B4320AC2A07BFF7A0B790A801CE5231C
:10094000B4330AD2A17BFF7A0B7914800DE523B46E
:100950003412C2A17BFF7A0B791C120D7A7F327E92
:0909600000120CFBE4F52380AC4D
:040CF7007FD07E0725
:100CFB00E4FDFCC3ED9FEC9E5015E4FBFA0BBB002F
:0F0D0B00010ABA04F8BBFBF50DBD00010C80E432
:010D1A0022B6
:080DD4008F993099FDC29922AC
:100D7A00120A5FFF600C120DD4740129F9E43AFAE1
:070D8A0080EE7F0D020DD485
:0C0DC800758920759850758DFDD28E2223
:100DA8008F80C2A6D2A77F017E00120CFBC2A722A9
:100DB8008F80D2A6D2A77F017E00120CFBC2A72289
:100D9100E4F5807F38120DA87F0E120DA87F011295
:070DA1000DA87F80020DA8E0
:100D1B008B2B8A2C892DAB2BAA2CA92D120A5FFFAA
:100D2B006010120DB87401252DF52DE4352CF52C22
:030D3B0080E4222F
:100B65007590F08590085308F0E508B4F0F27F140D
:100B75007E00120CFBE59054F0F50864F060EF7F01
:100B850001120CFBE59054F0F50864F060E07590F7
:100B9500FEE59054F0F50864F06005E4F51A80343C
:100BA5007590FDE59054F0F50864F06005751A013F
:100BB50080227590FBE59054F0F50864F0600575AA
:100BC5001A0280107590F7E59054F0F50864F0600E
:100BD500BD751A03E508B4E00AE51A25E025E02409
:100BE500098026E508B4D00AE51A25E025E0240A9F
:100BF5008017E508B4B00AE51A25E025E0240B8046
:0D0C050008E51A25E025E0240CF8E6FF22A2
:100D3E007F01120DA87BFF7A0B7925120D1B7FC048
:100D4E00120DA87BFF7A0B7936120D1BC2A480FE02
:03000300020C9E4E
:100C9E00C0E0C083C082C0D075D000C001C002C009
:100CAE0003C004C005C006C00720B220D2A47F0135
:100CBE00120DA87BFF7A0B7944120D1B7FC0120D0B
:100CCE00A87BFF7A0B7951120D1B80FEC2AFC2A812
:100CDE00D2AFD007D006D005D004D003D002D001B9
:090CEE00D0D0D082D083D0E032D6
:03000000020C12DD
:0C0C1200787FE4F6D8FD75812D020C59A6
:10096900E709F608DFFA8046E709F208DFFA803E70
:1009790088828C83E709F0A3DFFA8032E309F6085D
:10098900DFFA8078E309F208DFFA807088828C83C5
:10099900E309F0A3DFFA806489828A83E0A3F60879
:1009A900DFFA805889828A83E0A3F208DFFA804C53
:1009B90080D280FA80C680D4806980F2803380102A
:1009C90080A680EA809A80A880DA80E280CA803393
:1009D90089828A83ECFAE493A3C8C582C8CCC5830B
:1009E900CCF0A3C8C582C8CCC583CCDFE9DEE780DB
:1009F9000D89828A83E493A3F608DFF9ECFAA9F05A
:100A0900EDFB2289828A83ECFAE0A3C8C582C8CCAF
:100A1900C583CCF0A3C8C582C8CCC583CCDFEADEC8
:100A2900E880DB89828A83E493A3F208DFF980CC2A
:100A390088F0EF60010E4E60C388F0ED2402B40423
:100A49000050B9F582EB2402B4040050AF232345CA
:060A590082239009B9732D
:100A5F00BB010689828A83E0225002E722BBFE0295
:090A6F00E32289828A83E49322C8
:100C1E00020800E493A3F8E493A34003F68001F2E4
:100C2E0008DFF48029E493A3F85407240CC8C333D7
:100C3E00C4540F4420C8834004F456800146F6DFA6
:100C4E00E4800B0102040810204080900D5EE47ECB
:100C5E00019360BCA3FF543F30E509541FFEE4939B
:100C6E00A360010ECF54C025E060A840B8E493A362
:100C7E00FAE493A3F8E493A3C8C582C8CAC583CA8D
:100C8E00F0A3C8C582C8CAC583CADFE9DEE780BE45
:010D79000079
:00000001FF
