:1008F80053797374656D2052656164792E2E2E00CC
:100908002046616E204F4E002046616E204F4646BD
:1009180000204C69676874204F4E00204C69676856
:0609280074204F4646005A
:0309990001080052
:07092E0012096E7F327E000A
:10093500E4FDFCC3ED9FEC9E5015E4FBFA0BBB00F8
:0F094500010ABA04F8BBFBF50DBD00010C80E4FC
:010954002280
:080991008F993099FDC29922F3
:10096E00120955FF600C120991740129F9E43AFA43
:07097E0080EE7F0D020991DC
:0C098500758920759850758DFDD28E226A
:10088C00C2A4D2B2E4F5A01209857BFF7A0879F8EC
:10089C0012092E3098FD859908850809C298E5093A
:1008AC00B4310AD2A07BFF7A097908802BE509B410
:1008BC00320AC2A07BFF7A097910801CE509B43397
:1008CC000AD2A17BFF7A097919800DE509B4340BA2
:1008DC00C2A17BFF7A09792312092E20B209D2A476
:0C08EC007FE87E03120935E4F50980A7BF
:03000000020800F3
:0C080000787FE4F6D8FD758109020847F6
:10095500BB010689828A83E0225002E722BBFE02A0
:09096500E32289828A83E49322D3
:10080C0002088CE493A3F8E493A34003F68001F26E
:10081C0008DFF48029E493A3F85407240CC8C333ED
:10082C00C4540F4420C8834004F456800146F6DFBC
:10083C00E4800B0102040810204080900999E47EAA
:10084C00019360BCA3FF543F30E509541FFEE493B1
:10085C00A360010ECF54C025E060A840B8E493A378
:10086C00FAE493A3F8E493A3C8C582C8CAC583CAA3
:10087C00F0A3C8C582C8CAC583CADFE9DEE780BE5B
:01099C00005A
:00000001FF
