:07F100004552524F5221005D
:0DF2000048454C4C4F20574F524C442100C4
:04F300004B487A00FC
:10F400003738392F003435362A003132332D004356
:04F41000302E2B006F
:0AF50000454E5445522046203D00C0
:0FF60000454E54455220534947205459503A0023
:10F700008096ACC0D2E2EFF8FDFFFDF8EFE2D2C088
:10F71000AC96806A54402E1E110802000208111E89
:05F720002E40546A8038
:10F80000204F5554204F462052414E47452120005D
:09F90000534157544F4F54480085
:07FA0000535155415245002E
:05FB000053494E4500D1
:09FC0000534947205459503A00C1
:10FD000046203D200090F200E4936006120143A3D8
:10FD100080F612010D12010D2290F600E4936006A8
:10FD2000120143A380F612010D12010D22E590B4D9
:10FD3000011712012990F900E4936006120143A310
:10FD400080F612010D12010D22B402171201299042
:10FD5000FA00E4936006120143A380F612010D122B
:10FD6000010D22B4031712012990FB00E4936006F1
:10FD7000120143A380F612010D12010D2212FDDAC9
:10FD80002212011690F500E4936006120143A3804D
:10FD9000F62212012912010D12009212010D120118
:10FDA00043540FF53112010D12009212010D120190
:10FDB00043540FF5308531F045F0F5CC12010D12AA
:10FDC000010D2290F300E4936006120143A380F634
:10FDD00012010D12010D1201162212011690F100EE
:10FDE000E4936006120143A380F612010D12010D87
:10FDF0001201160200302212011690F800E49360FE
:10FE000006120143A380F612010D12010D12011614
:10FE10002212FE2A7F0575F0337400F58025F0125A
:10FE2000FE34DFF720A55480E82274C885CCF08426
:10FE3000F4F5AA2285AA8DD28E308FFD2212FE52B1
:0CFE400075800012FE607580FF12FE60ED
:10FE4C0020A52C80EF2274FA85CCF08475F002A4E6
:10FE5C00F4F5AA2285AA8DD28E308FFD2290F70060
:10FE6C007A24E493F580A3DAF920A50380EF22022B
:10FE7C00004190FC00E4936006120143A380F6124B
:10FE8C00FD2D12012990FD00E4936006120143A39D
:10FE9C0080F6E5304430120143E531443012014321
:09FEAC00740012014312FDC3228F
:03000000020030CB
:100030007580FFD2A575900F12011675892012FDEB
:100040000512011612FD19120092120143540FF508
:100050009012FD2D12FD8112FD9212FDC3E590B4A8
:10006000010C12FE1112FE7E20A5FD020041B40219
:100070000C12FE3D12FE7E20A5FD020041B4030CD1
:1000800012FE6912FE7E20A5FD02004112FDDA0279
:100090000030C297C296C295C294E590540FB40F37
:1000A0000280EF3104E590540FB40F0280E4C29750
:1000B000D296D295D294E590B47F2AD297C296D2A6
:1000C00095D294E590B4BF22D297D296C295D2949D
:1000D000E590B4DF1AD297D296D295C294E590B447
:1000E000EF1202009290F400800F90F405800A90C5
:1000F000F40A800590F40F80007F04135003A3DFFF
:10010000FAE493227DFF7EFFDEFEDDFA227E077F8A
:10011000FFDFFEDEFA2274383137310D740E3137CD
:10012000310D74013137310D2274C03137310D2258
:1001300074013137310D22F5B0C2A6D2A7000000FC
:10014000C2A722F5B0D2A6D2A700000000C2A72203
:00000001FF
