:07F100004552524F5221005D
:0DF2000048454C4C4F20574F524C442100C4
:04F300004B487A00FC
:10F400003738392F003435362A003132332D004356
:04F41000302E2B006F
:0AF50000454E5445522046203D00C0
:0FF60000454E54455220534947205459503A0023
:10F700008096ACC0D2E2EFF8FDFFFDF8EFE2D2C088
:10F71000AC96806A54402E1E110802000208111E89
:05F720002E40546A8038
:10F80000204F5554204F462052414E47452120005D
:09F90000534157544F4F54480085
:07FA0000535155415245002E
:05FB000053494E4500D1
:09FC0000534947205459503A00C1
:10FD000046203D200090F200E4936006120130A3EB
:10FD100080F612013F12013F2290F600E493600644
:10FD2000120130A380F612013F12013F22E590B488
:10FD3000011712011F90F900E4936006120130A32D
:10FD400080F612013F12013F22B4021712011F90E8
:10FD5000FA00E4936006120130A380F612013F120C
:10FD6000013F22B4031712011F90FB00E4936006C9
:10FD7000120130A380F612013F12013F2212FDDA78
:10FD80002212010E90F500E4936006120130A38068
:10FD9000F62212011F12013F12009212013F1201BE
:10FDA00030540FF53112013F12009212013F12013F
:10FDB00030540FF5308531F045F0F5CC12013F128B
:10FDC000013F2290F300E4936006120130A380F615
:10FDD00012013F12013F12010E2212010E90F1009A
:10FDE000E4936006120130A380F612013F12013F36
:10FDF00012010E0200302212010E90F800E493600E
:10FE000006120130A380F612013F12013F12010ECB
:10FE10002212FE2A7F0575F0337400F58025F0125A
:10FE2000FE34DFF720A55480E82274C885CCF08426
:10FE3000F4F5AA2285AA8DD28E308FFD2212FE52B1
:0CFE400075800012FE607580FF12FE60ED
:10FE4C0020A52C80EF2274FA85CCF08475F002A4E6
:10FE5C00F4F5AA2285AA8DD28E308FFD2290F70060
:10FE6C007A24E493F580A3DAF920A50380EF22022B
:10FE7C00004190FC00E4936006120130A380F6125E
:10FE8C00FD2D12011F90FD00E4936006120130A3BA
:10FE9C0080F6E5304430120130E531443012013047
:09FEAC00740012013012FDC322A2
:03000000020030CB
:100030007580FFD2A575900F12010E75892012FDF3
:100040000512010E12FD8112FD9212FDC312FD195F
:10005000120092120130540FF59012FD2DE590B46C
:10006000010C12FE1112FE7E20A5FD020041B40219
:100070000C12FE3D12FE7E20A5FD020041B4030CD1
:1000800012FE6912FE7E20A5FD02004112FDDA0279
:100090000030C297C296C295C294E590540FB40F37
:1000A0000280EF31483148E590540FB40F0280E2EE
:1000B000C297D296D295D294E590B47F2AD297C2B5
:1000C00096D295D294E590B4BF22D297D296C2959B
:1000D000D294E590B4DF1AD297D296D295C294E525
:1000E00090B4EF1202009290F400800F90F405801B
:1000F0000A90F40A800590F40F8000135003A38047
:10010000FAE493B4430712010E02003022227480F5
:10011000312474383124740E312474013124227452
:10012000C0312422F5B0C2A6D2A700C2A7313F2217
:10013000F5B0D2A6D2A70000C2A7313F313F227B43
:10014000FF7AFFDAFEDBFA227B3C7AFFDAFEDBFA8B
:060150002274103124228C
:00000001FF
