:07020000204552524F52004D
:0D03000048454C4C4F20574F524C442100B3
:03031000485A0048
:10032000553332310055363534005539383700559C
:0403300020302E004B
:0C04000020454E5445522046203D20006F
:10050000454E54455220534947205459503A2000F3
:100600008096ACC0D2E2EFF8FDFFFDF8EFE2D2C079
:10061000AC96806A54402E1E110802000208111E7A
:050620002E40546A8029
:10080000204F5554204F462052414E47452120004D
:10081000900300E4936006120135A380F6120142B2
:1008200012014222900500E4936006120135A38074
:10083000F622900400E4936007120135A380F622AB
:10084000020058120114900200E493600612013570
:10085000A380F61201421201421201140208D322AF
:10086000900310E4936006120135A380F622120172
:1008700014900800E493120135A380F812011422A9
:100880007FFF7400120893F59004DFFBE420B4406E
:1008900080EE22E53075F00AA48531F025F0B42E03
:1008A0000280025006F5F074E6842212086E0208F7
:1008B000D3227590FF75900020B41580F522900624
:1008C000007A24E493F590A3DAF920B40380EF22B0
:0308D00002003CE7
:100030007580FF75900F120114120810120114122E
:10004000082412009D120135120142120142540F80
:10005000F59012011412083212009D120135540F4E
:10006000F53112009D120135540FF5307400120164
:1000700035120860E531540FF531E530540FF53095
:10008000E590B40103120880B402031208B2B4036D
:10009000031208BE1208430208D3020150C297C2DD
:1000A00096C295C294E590540FB40F0280EF31428E
:1000B000E590540FB40F0280E4C297D296D295D245
:1000C00094E590B47F2AD297C296D295D294E590C7
:1000D000B4BF22D297D296C295D294E590B4DF1ADB
:1000E000D297D296D295C294E590B4EF1202009DB9
:1000F000900320800F900325800A90032A800590AA
:10010000032F8000135003A380FAE493B443041236
:10011000011422227480312A7438312A740E312A53
:100120007401312A2274C0312A22F5B0C2A6D2A7A6
:10013000C2A7314222F5B0D2A6D2A7C2A77B6031B6
:1001400044227B967AFFDAFEDBFA227410312A22EF
:00000001FF
